:020000041000EA
:1000000000B5324B212058609868022188439860DF
:10001000D860186158612E4B002199600221596106
:100020000121F02299502B49196001219960352056
:1000300000F044F80222904214D00621196600F024
:1000400034F8196E01211966002018661A6600F04E
:100050002CF8196E196E196E052000F02FF8012189
:100060000842F9D1002199601B49196000215960AB
:100070001A491B48016001219960EB211966A021F2
:10008000196600F012F800219960164914480160C1
:100090000121996001BC002800D000471248134993
:1000A000086003C880F30888084703B5996A0420EC
:1000B0000142FBD001200142F8D103BD02B5186610
:1000C0001866FFF7F2FF186E186E02BD00000240BE
:1000D000000000180000070000035F00212200005C
:1000E000F4000018222000A00001001008ED00E03C
:1000F00000000000000000000000000074B24E7A12
:1001000000200420F7010010CB0100102D9E0010EC
:10011000C9010010C9010010C9010010C901001077
:10012000C9010010C9010010C9010010CF01001061
:10013000C9010010C9010010D1010010D301001045
:10014000C1010010C1010010C1010010C101001067
:10015000C1010010C1010010C1010010C101001057
:10016000C1010010C1010010C1010010C101001047
:10017000C1010010C1010010C1010010C101001037
:10018000C1010010C1010010C1010010C101001027
:10019000C1010010C1010010C1010010C101001017
:1001A000C1010010C1010010C1010010C101001007
:1001B000C1010010C1010010C1010010C1010010F7
:1001C000EFF30580103800BE00BE00BE00BE00BECA
:1001D00000BE00BEF2EB887160D2011080D2011027
:1001E0003802001090A31AE71E481F49086006C88D
:1001F00081F3088810471D480068002801D019487D
:10020000F3E70DA40ECC002902D000F012F8F9E7B4
:100210001749184A002000E001C19142FCD116495B
:100220008847164988471649884700BEFDE701C937
:1002300001C29A42FBD3704780D2011060010020B6
:10024000F86400201836021000000420000004208A
:1002500018360210001004200010042000000000D6
:10026000704700000000000008ED00E0000000D032
:10027000F86400205CB1032035EF0010A9020010E3
:100280002DEF0010F8B5C046044B10B5002B03D07D
:100290000349044800E000BF10BDC0460000000054
:1002A000A8770020AC8E011010B59EB014F04AFD66
:1002B000FA210620890012F07FF8062014F098F940
:1002C00013F060FE13F0D2FE0AF010FBFA2080005B
:1002D0000BF048FC04A80AF081FB4021124A04AB51
:1002E0000EA80EF0BDFD114C082208210EAB200017
:1002F0000AF01CFBFA2080000BF034FC0023019371
:1003000000930F330822082120006B4414F026FCD0
:10031000074CFA20013C8000A4B211F059FF13F001
:1003200097FF002CF5D1F3E7B08E0110B88E0110C5
:10033000E6030000F0B5DE4657464E464546E0B5BA
:10034000CB4B8BB001910268196804008A4200D13E
:1003500096E01869824200D19EE01D6AAB46AA422F
:1003600000D1A5E01D6BAA46AA4200D1ACE01D6CED
:100370000295AA4200D1BFE01D6D0395AA4200D1AB
:10038000C6E01D6E0495AA4200D1CDE01D6F059513
:10039000AA4200D1D4E080255D590695AA4200D139
:1003A000DAE090255D590795AA4200D1E2E0A02548
:1003B0005D59AA4200D1EBE0B0269E590896B242A0
:1003C00000D1F3E0C027DE590996B24200D1FCE02B
:1003D000D027DF59BC46BA4200D106E1E027DF59F9
:1003E000B846BA4200D110E1F027DF59B94697422A
:1003F00000D119E1002900D124E1002800D13FE11A
:100400005946002900D139E15146002900D13BE18C
:100410000299002900D135E10399002900D137E183
:100420000499002900D131E10599002900D133E177
:100430000699002900D12DE10799002900D119E181
:10044000002D00D12AE10899002900D12CE1099959
:10045000002900D126E16146002900D120E1414672
:10046000002900D122E1494600200F26002900D1B1
:10047000E9E00BB0F0BCBB46B246A946A046F0BDD1
:100480005D688068854200D063E79D68206B854287
:1004900000D05EE7002622E05E69A568AE4200D08B
:1004A0005BE79E69256BAE4200D056E7012616E059
:1004B0005E6AA568AE4200D054E79E6A256BAE42E4
:1004C00000D04FE702260AE05E6BA568AE4200D07E
:1004D0004DE79E6B256BAE4200D048E70326350101
:1004E00001995A19D268012900D0C5E00020002ADC
:1004F000BFD10132FF32B7E05E6CA568AE4200D0DA
:100500003AE79E6C256BAE4200D035E70426E6E75D
:100510005E6DA568AE4200D033E79E6D256BAE429E
:1005200000D02EE70526DAE75E6EA568AE4200D061
:100530002CE79E6E256BAE4200D027E70626CEE75D
:100540005E6FA568AE4200D025E79E6F256BAE4278
:1005500000D020E70726C2E784255E59A568AE4291
:1005600000D01EE788255E59256BAE4200D018E703
:100570000826B4E794255E59A568AE4200D016E778
:1005800098255E59256BAE4200D010E70926A6E7F4
:10059000A4269F59A668B74200D00DE7A8269F5908
:1005A000266BB74200D007E70A2698E7B427DF5941
:1005B000BC46A768BC4500D004E7B827DE59276BC6
:1005C000BE4200D0FEE60B2689E70437DF59B84665
:1005D000A768B84500D0FBE6C8269E59B046266BF2
:1005E000B04500D0F4E60C2679E7D427DF59B946A8
:1005F000A768B94500D0F1E6D8269E59B146266BCA
:10060000B14500D0EAE60D2669E7E427DF593E0050
:10061000A768BE4200D0E7E6E826276B9E59BE4297
:1006200000D0E1E60E265AE7F427A668DF59B74264
:1006300000D0DFE6F826276B9E59BE4200D0D9E6EF
:100640000F264CE70026216B35015A515A19A06834
:1006500091600021D1600199506001394A425141B5
:10066000FF2249420A4001325B19DA60701C00E740
:10067000086B00200926E6E70132F5E70226E2E7EB
:100680000126E0E70426DEE70326DCE70626DAE7B4
:100690000526D8E70826D6E70726D4E70A26D2E7B4
:1006A0000D26D0E70C26CEE70B26CCE70E26CAE7B0
:1006B000F0B54546DE4657464E4680466823E0B5CF
:1006C00043448BB0039303790C00002B00D08BE0E4
:1006D0004346DB6AA21E023B9A425FD24346002198
:1006E000588900230CF0CAFE43461C6D5D6D24182A
:1006F0004D414346802200211C665D6692000398AE
:100700000DF00AF8434680215A89090253021E005F
:100710008B4200D90E00802189000F008B4203D844
:1007200041E07608BE423CD9300004F0A3FF824687
:100730000028F6D0320000210CF0EEFF730A994633
:10074000434600225B899346002B05D115E04346C2
:100750005B89CB449B4510D25B4604930023414602
:10076000059348784946049A059B009112196B41FC
:10077000514609F0D3FC0028E9D0504604F07EFF32
:10078000434658895B46181A431E9841C0B20BB0C5
:10079000F0BCBB46B246A946A046F0BD00240025E9
:1007A000A7E743465A8900239B4601339946012611
:1007B00000270020002A09D1E4E701239C46434694
:1007C0005889E344A4197D418345DBD243465878D8
:1007D0004B462200009303992B0009F09FFC002850
:1007E000EBD043465889CDE70125026E436E03994D
:1007F0004078009509F092FC03000120002BC6D13F
:1008000042461371536E126E089209930898099923
:1008100043461B6B06930023079343461A6C5B6C9D
:10082000801A994102000B0006980799994200D05E
:100830004EE7904200D84BE74346DB78022B00D0CE
:1008400046E706980799089A099B12184B414146BA
:1008500048780399009509F061FC39E73423C25CBC
:100860000133C35C10B51B0213433622825C1204B1
:100870001A433723C35C1B06134339228B6038238A
:10088000825CC35C12021A433A23C35C1B04134309
:100890003B22825C12061A433C23C45C0133C35CD6
:1008A0001B0223433E24045D24041C433F23C35CFA
:1008B0000A611B0623434B612123C25C1F3B13408B
:1008C000CB710023CB6110BDF0B5CE46474680B555
:1008D0000379040085B0002B0FD12378032B3FD080
:1008E00000220021607809F043FC431E9841C0B209
:1008F00005B0C0BCB946B046F0BD68239846026E4C
:10090000436E01218044894640780091414609F0B8
:1009100005FC03000120002BEAD1266E676E206CD7
:10092000616C2371236B32000293002303933B001D
:10093000121A8B4110001900029A039B8B42CCD1F2
:100940008242CAD9E1780229C7D1029A039B49465B
:10095000607892197B410091414609F0DFFBBCE7CA
:100960006579012DBCD126008022683600219200D5
:1009700030000CF0D1FE0F4B0F4A0120E2520F4B1A
:100980000F4AA36693239B00E250A1690433626976
:10099000E15000210433E250A26BE36B12184B418B
:1009A0006078226663663100009509F0B7FB00238A
:1009B000637195E76602000055AAFFFF525261413C
:1009C00072724161F0B5CE46474680B51500026EA1
:1009D0001E000400436E87B0AA4207D10020B34234
:1009E00004D107B0C0BCB946B046F0BD270061785D
:1009F00068378C462179B946002910D101232A0095
:100A0000009349463300604609F05EFB002803D09E
:100A100001256D4201202E0025666666E1E7012171
:100A2000604600918846390009F078FB03000120F8
:100A3000002BD6D12371226E636E04920593049825
:100A40000599236B02930023039363789C46226CE1
:100A5000636C801A994102000B0002980399994235
:100A6000CCD19042CAD9E378022BC7D1029803991E
:100A7000049A059B12184B41414660460091494635
:100A800009F04CFB63789C46B8E7C046F0B54F468A
:100A90004646D646C36AC0B5023B8F1E9F429B4165
:100AA0001F40072306009146B8463C0000259A46A1
:100AB00082B0230B00930023019300980199B26D3B
:100AC000F36D12184B413000FFF77CFF00283CD13A
:100AD0005246012322409340802292009446F06ABD
:100AE0002105C90DDBB20238721868321278013460
:100AF0001A40A04215D95B00DBB2002A17D101359C
:100B00004D451FD0A74216D0002BEDD101316145D4
:100B1000CFD2012372186832127801341A40A042F1
:100B2000E9D88021002300248900002AE7D0A046CC
:100B30000025A742E8D1002002B0E0BCBA46B14689
:100B4000A846F0BD40460230F6E701204042F3E7F8
:100B5000F0B54F464646D646C0B5077804000D00AE
:100B60001600022F5DD034D8012F58D14B0898467B
:100B70008844414600234A0A416C006C12184B41DC
:100B80002000FFF71FFF00281ED168239946673B0E
:100B900043449A4643465246DB05A144DB0D0021FF
:100BA0004B44500A2F4256D00F251A781540320177
:100BB0002A431A70226C636C277112184B41200073
:100BC000FFF700FF00285FD0E0BCBA46B146A84658
:100BD000F0BD033F012F22D80023CA09416C006CED
:100BE00012184B412000FFF7EDFE0028ECD1FE2348
:100BF000AD005B001D402300227868335B19042A96
:100C000005D0DA7836011209360912071643320A7E
:100C10001E705A70320C360E9A70DE7017E0022089
:100C2000D2E700230A0A416C006C12184B412000E5
:100C3000FFF7C8FE0028C7D1FF236A005B001A40F7
:100C4000230068339B18B2B2120A1E705A70012337
:100C500000202371B8E71E70226C636C2771121894
:100C60004B412000FFF7AEFE0028ADD15346494668
:100C70004A46DB05DB0DD218CB5C0F21360A8B43CD
:100C800031400B431370E2E75346DA05D20D3309C6
:100C90004A44DBB21370DAE7F0B5C6460D00012412
:100CA00000B5012920D90668F36A8B421CD9337834
:100CB000032B5ED01CD8012B4BD0022B14D1002368
:100CC0000A0A306C716C12184B413000FFF77AFE43
:100CD00000284BD1FF226B0052001340F3186833F9
:100CE0005C781A7824021443200080BCB846F0BD1A
:100CF000042BF9D1026943691700C1791F435AD106
:100D000001240029F0D1C369002B00D08BE0306CA6
:100D1000716C0023EA0912184B413000FFF752FEB4
:100D2000002823D1FE2369225B00AD001D40761907
:100D3000953BB25CFF3BF35C12021A436A23F35CFF
:100D40001B0413436B22B45C24061C436400640838
:100D5000CAE700234F087F187A0A306C716C1218AA
:100D60004B413000FFF72EFE00283DD001246442A5
:100D7000BAE70023CA09306C716C12184B4130007D
:100D8000FFF720FE0028F1D1FE2269215200AB00BE
:100D90001340F318953A595CFF3A9A5C09021143E3
:100DA0006A229A5C12040A436B215C5C2406144399
:100DB0002401240998E78768002FA1D0EF1B02299E
:100DC00033D101204042C11780185941CB05400A58
:100DD000184372890023490A0BF038FD874200D975
:100DE00082E720D06C1C7FE77B1C9846FB05DB0D5F
:100DF000F318414668331F7800234A0A306C716C3F
:100E000012184B413000FFF7DDFD0028AED14346FC
:100E1000DB05DB0DF31868331B781B023B432C42C8
:100E20000CD01C0960E7074C5EE7032900D06AE795
:100E30008369BB4200D866E76C1C55E71B051C0D97
:100E400052E7C046FFFFFF7FF8B50668056B3378B1
:100E50002035043B5A1E93412B4A5B4213408022AB
:100E600052059446634404009D4205D300220023AA
:100E7000A263E3630420F8BD826BC36B11001943C6
:100E8000F8D0E905CF0D002927D100210120121843
:100E90004B41616BA263E363002924D073896A0A22
:100EA000013B1A4219D12000FFF7F6FE012826D98E
:100EB000431C22D0F36A9842D8D2821E023B606360
:100EC0009A421ED20023002170890CF0D7FA326DAD
:100ED000736D80185941A063E1636836F6190020EC
:100EE00025632664C7E732896B099342BED2683610
:100EF000F619002025632664BDE70120BBE7022028
:100F0000B9E700200021E6E7000020F070B51500E9
:100F100000221E00027101225242D3170400026611
:100F2000436682B06B1C51D1731C4FD1544A544B51
:100F3000A2185578E35C2D021D43524B9D4233D0DD
:100F40006823E35CEB2B06D01833DBB2012B02D90C
:100F5000032002B070BD7323E25C230073335B781F
:100F600003201B0213435A1E1342F2D18022920027
:100F70009342EED17523E35C002BEAD05A1E134254
:100F8000E7D17623E25C230076335B781B021343C0
:100F900004D07823E35C013B012B46D93A4BE81897
:100FA000431E98410230D4E720000B2237496830B5
:100FB00014F0C8FC00281BD06823E35CEB2B19D08D
:100FC0001833DBB2012B15D90220C2E7012321001F
:100FD00060782A0000936831330009F075F8002822
:100FE00020D001225242D317042022666366B0E764
:100FF0000120AEE7200008222549BA3014F0A2FCF7
:1010000000283AD07323E25C230073335B781B0221
:1010100013435A1E1342D7D18022022092009342DA
:1010200097D1A7E72566666680E77923E25C23000F
:1010300079335B781B021343B0D07B23E25C23003F
:101040007B335B781B0213437F2B0FD88823E11877
:10105000E25C4B781B0213438A7812041A43CB7864
:101060001B06134380225202934297D37E23E25CF5
:10107000E41863781B02134390D0002069E7C04650
:101080006602000055AA0000AB55FFFFF88E011064
:10109000048F0110F0B54546DE4657464E46002304
:1010A000E0B5050000688BB00B60002800D170E14E
:1010B000040002E03A2B00D15CE1237801341F2BBD
:1010C000F8D8B64B1B78B6489B001C58002C00D1B2
:1010D000C6E1012623780C60B24315006078002B2E
:1010E0000BD008F0C5FF064206D1002D02D0400704
:1010F00000D550E1002036E160780023237008F02D
:10110000C3FFC30700D542E1002D02D0400700D540
:1011100041E1002200232000FFF7F8FE022800D161
:101120004CE1042800D199E1012800D91AE1226E8E
:10113000636E00920193012800D108E17323E15C02
:101140002300802273335B7892001B020B4393428F
:1011500000D007E122007E237E325578E35C2D0229
:101160001D4300D17EE178232563E65C731EE670A3
:10117000012B00D9F6E07523E35C98466381002BD0
:1011800000D1EFE04246013B1A4200D0EAE02200E3
:10119000792379325778E35C3F021F4327813B076D
:1011A00000D0DFE07B23E25C23007B335B781B0213
:1011B00013430CD1210088338831E25C4B781B0249
:1011C00013438A7812041A43CB781B061343762202
:1011D000A15C22007632527812020A43914600D175
:1011E000C0E03A094A4492466E43B244534500D2A5
:1011F000B8E052469B1A414618009B460BF0E8FAAD
:101200008446C34500D2ADE0664B984200D9A9E0C0
:10121000009801995346029300230393029A039B7B
:1012200080185941009A019B04900591484600217D
:10123000801859410223634498465B4B9C4500D972
:1012400037E35A4B9C4501D900F028FC4346206403
:101250006164E362009A019BA263E363049A059BC5
:1012600022656365002F7DD03200002312184B41A8
:10127000414601204646490041443040490809188A
:101280000120A264E3644A4B9C466144490A8D42B2
:1012900068D301235B42A361636181336371454A73
:1012A0002070138801339BB213800022E380424BED
:1012B000E26119688C4201D100F0EDFB1A69944299
:1012C00000D1BFE31A6A944201D100F0E0FB1A6B2F
:1012D000944200D1D7E31A6C944200D1D0E31A6D46
:1012E000944200D1C9E31A6E944200D1C2E31A6F4E
:1012F000944200D1BBE3802299588C4200D1B3E3E1
:10130000902299588C4200D1ABE3A02299588C428C
:1013100000D1A3E3B02299588C4200D19BE3C022B4
:1013200099588C4200D193E3D02299588C4200D135
:101330008BE3E02299588C4200D13CE3F02299588B
:101340008C4200D0D6E60021002099500BE0250009
:101350000B23683503E00133402B00D190E0EA5CB9
:10136000002AF8D00D200BB0F0BCBB46B246A9460F
:10137000A046F0BD0378303BDEB2092E09D8861CAA
:101380000B20B442EFD1032BEDDC2C609BE6032055
:10139000E9E70B20E7E70A20E5E7C0464AB103206A
:1013A000F86A0020F5FFFF0FF5FF0000F50F0000C1
:1013B000FF01000046B10320086B0020C24BE35C34
:1013C000EE2B00D149E1C14AC04BA1184A78E35C39
:1013D00012021A438B781B041343CA78BC491206C5
:1013E00060181A43BA4B4178E35C090219438378C9
:1013F000C6781B040B43B749360660181E43B54B2D
:101400004178E35C090219438378C5781B040B43D8
:10141000B1492D0660181D43AF4B4178E35C0902CA
:1014200019438378C7781B040B433F061F43002AE8
:1014300000D00AE1002E00D095E1002D00D09BE104
:10144000002F00D18EE73A0000232000FFF75EFD59
:10145000012800D86BE6042800D083E7012082E74A
:101460000C2080E721008C238C314A78E35C120247
:101470001A438B78CD781B0413432D061D4372E667
:10148000D023E15C23008022D0335B7852001B0222
:101490000B43934200D065E7D423E35C092B00D0D3
:1014A00060E72300B03359781A78090211439A781B
:1014B00012040A43D978090611430E0059791A79A2
:1014C000090211439A79DB7912040A431B0613437C
:1014D00021001F00BC23BC31E25C4B781B0213438C
:1014E0008A7812041A43CB781B0613432363D6234E
:1014F000E35CE370012B00D034E7D522A25C93407B
:101500009A469BB26381002B00D12BE72200C423B3
:10151000C4325178E35C090219439378D2781B04F2
:101520000B4312061A436D4B90469A4200D919E7B5
:1015300013000233E362009A019BA263E363C023BA
:10154000E15C2300C0331A005B78D0781B020B43A8
:101550009178000609041943084302000098019994
:101560000023801859412065616502900391B821DC
:101570008C46A4446146B8334A78E35C12021A43AD
:101580008B781B0413439946CB7849461B061943B5
:101590000A0000980199002312184B4122646364E9
:1015A000534641461B041B0C594300230A00029872
:1015B000039912184B410098019936184F41BB42CC
:1015C00000D9CFE600D187E22100C823C831E25C10
:1015D0004B7800261B0213438A78002712041A4313
:1015E000CB781B061343A3640023E3641EE00023AF
:1015F00000210BF043FF226D636D12184B41002157
:10160000049705910498059912184B412000FFF7A3
:10161000D9F9002800D021E70137A31968331B78D6
:10162000812B00D1CAE12036F605F60D002EF4D14B
:101630006089B84200D895E6A26CE36A023A023BA0
:101640009A42D4D300220023D9E700232000FFF7D9
:101650005DFC012800D9EDE669E5012200232000A8
:10166000FFF7B0F9002800D0F8E6250068350C2215
:1016700028001B4914F066F9002800D072E6752294
:101680007423A25CE35C12021A437623E35C1B041E
:1016900013437722A75C3F061F433A00D2235C3AEC
:1016A0005B009A4200D95DE62D3BFF3B9C46012141
:1016B000A44462464942A846A4460D001400094EBF
:1016C000103F1038773B4AE02A0200002E0200004B
:1016D0003E0200004E0200005E020000FDFFFF7FA0
:1016E000C48F01102083B8ED225C190011406940BD
:1016F0004D080B4200D075405108194069404D0813
:101700000B4200D075409108194069404D080B42CA
:1017100000D07540D108194069404D080B4200D0F7
:1017200075401109194069404D080B4200D07540C1
:101730005109194069404D080B4200D0754091098C
:10174000194069404D080B4200D07540D2096A40EB
:101750005508134200D075400130B84215D0032817
:10176000C2D80022C1E7320000232000FFF7CEFBE1
:10177000012800D961E6DAE42A0000232000FFF7FF
:10178000C5FB012800D95BE6D1E464467823E25C1E
:101790000133E35C29001B0213437A22A25CC94394
:1017A00012041A437B23E35C45461B06134399420C
:1017B00000D0D7E52100BC23BC31E25C4B781B0292
:1017C00013438A7812041A43CB781B061343802BE9
:1017D00000D0C7E504394A783833E35C12021A4373
:1017E0008B781B041343CA7812061A43802A00D947
:1017F000B8E52300B0335878197800020843997887
:10180000002609040143D87800060843009058795F
:101810001979000208439979DB79090401431B0611
:101820000B430193D3019946002A00D19AE5C023C6
:101830005B009846AA4B9A464B46D346A946E246D9
:10184000029304E0029B8036B34200D18AE5009AFD
:10185000019B0025740A12196B415046FFF7B2F83C
:10186000002800D0FAE5474637404F441022594639
:10187000380014F067F80028E4D120377A783B78F4
:1018800012021A43BB7839791B041343FA78504685
:1018900012061A437B791B020B43B97909041943D9
:1018A000FB791B060B43FFF731FB0128CAD85446CE
:1018B0003DE44346E362009A019BA263E363049A1A
:1018C000059B22656365922320646164E25C2300CA
:1018D00092335B781B0213433B4300D042E5210067
:1018E00094239431E25C4B781B0213438A781204F0
:1018F0001A43CB781B061343A364039B794AE36422
:10190000434694469B0063445B0A9D4200D229E50E
:1019100001235B42A3616361813363711833E25C2D
:10192000230098335B781B021343012B01D0032063
:10193000B5E4012200980199002380185941020062
:101940000B002000FFF73EF80028F0D1664B6071D5
:10195000E25CE3185B781B021343644A9342E6D1CE
:101960006823E25C0133E35C1B0213436A22A25C3E
:1019700012041A436B23E35C1B0613435C4A934235
:10198000D5D193239B00E118E25C4B781B021343F3
:101990008A7812041A43CB781B061343554A9342A4
:1019A000C5D1942395229B009200E358A2580320AE
:1019B0006261A36173E400219950BFE4AE19727DA6
:1019C000337D12021A43B37DF67D1B0413433606A2
:1019D0001E43012E00D8C5E4E36AB34200D8C1E437
:1019E0006089B11E414300230A00206D616D121809
:1019F0004B417F27A046A946A265E36514E03B0062
:101A00004A4633409B00D25C4B445978090211434B
:101A10009A78DB7812040A431B0613435A1C55D0EC
:101A200001369E4200D09DE400254346F4091A6C1D
:101A30005B6C404612196B41FEF7C4FF0028DED0F4
:101A4000012090E400221A613CE40021995070E4E6
:101A50000021995068E40021995060E400219950D8
:101A600058E40021995050E40021995048E40022A4
:101A70001A6740E400221A6639E400221A6532E44B
:101A800000221A642BE400221A63FFF724FC0022D0
:101A90001A62FFF71CFC1A60FFF710FC4346206433
:101AA0006164E362009A019BA263E363049A059B6D
:101AB00022656365002F00D154E432000023121820
:101AC0004B41414602204900FFF7DBFB444604201E
:101AD000A3616361FFF7E3FBB24200D874E541E420
:101AE000B48F0110FF0100006602000055AA00003B
:101AF0005252614172724161F0B54546DE464E4632
:101B00005746E0B50568866B2B692A6E9B46C36B0A
:101B10000400984687B06B6E964259D1984557D1CC
:101B2000216C0B78852B07D0022007B0F0BCBB4698
:101B3000B246A946A046F0BD202258460BF0F2FD61
:101B40005B465D78802301356D012A00603A9B0079
:101B50009A42E9D82000FFF777F90428E4D000285A
:101B6000E3D1A26BE36B2068FEF72CFF0028DCD1E9
:101B7000216C0B78C02BD7D15846202220300BF097
:101B8000D1FD23235A46D05C0F212C300AF020FED1
:101B90004001A842C8D840265F4613E00028C4D1BF
:101BA000A26BE36B2068FEF70DFF0028BDD1216C0E
:101BB0000B78C12BB8D1B819202220360BF0B2FD1A
:101BC000B54256D92000FFF73FF90428E6D1ABE72C
:101BD00069788C46682189462979A944002914D15D
:101BE00001233200009349464346604608F06CFAF0
:101BF000002806D001225242D3172A666B660120C4
:101C000093E743462E666B668AE7012160468A4663
:101C10000091494608F082FA0028F0D12A6E6B6ED6
:101C2000049205932B6B2871029300230498059965
:101C300003936B789C462A6C6B6C801A9941020066
:101C40000B00029803999942CAD19042C8D9EB7807
:101C5000022BC5D102980399049A059B12184B4197
:101C6000514660460091494608F058FA6B789C4608
:101C7000B6E700230022787801304001022A06D11D
:101C80003A795908DB03D31805225B189BB2B95C7B
:101C90005C08DB03CB181B1901329BB29042EDD8D4
:101CA000F878BA7800021043C01A431E98414000E9
:101CB0003BE7C046F0B5826BC36B57464E46DE46E7
:101CC0004546E0B58BB0110002920393FF22040059
:101CD000914607681943089200D1A5E068239B4606
:101CE000673B9A46BB443A6E7B6E029803998242E8
:101CF00001D18B4223D039797E78002900D095E03C
:101D00005346594600933000029A039B08F0DCF9D1
:101D1000002810D001225242D3173A667B66012078
:101D200000220023A263E3630BB0F0BCBB46B246C3
:101D3000A946A046F0BD029A039B3A667B66236CD7
:101D40001A78002A70D0397804294BD03F21D87AEC
:101D50000140A171E52A07D02E2A05D020200D00D0
:101D60008543082D00D094E0FF239946256B266813
:101D700020353378043B5A1E9341A04A5B421340FE
:101D800080225205944663449D424DD2A26BE36B80
:101D9000110002920393194346D0EB05DA0D002B94
:101DA00004D06836B618256326649CE70021029AA1
:101DB000039B012012184B41616B02920393A263B3
:101DC000E36300291FD132896B0993422CD2029A16
:101DD000039B1100683625632664194300D082E70F
:101DE0000020A1E7256B852AC1D120002565FFF7DA
:101DF00083FE002800D093E73B6900201A793F2337
:101E00001340A37190E773896A0A013B1A42DED13D
:101E10002000FEF741FF012800D8ECE0431C00D170
:101E20007DE7F36A98424CD3042079E751463000AD
:101E30000091594608F072F9002800D06FE73B6B1B
:101E4000387104930023386E796E059306900791DC
:101E50003A6C7B6C801A99417E7802000B000498E2
:101E60000599994200D04BE7904200D848E7FB78AB
:101E7000022B00D044E706980799049A059B121894
:101E80004B41012130000091594608F047F97E7816
:101E900036E70F2900D06AE13131256B11420BD0B2
:101EA0008A439146587B256508905A7B08998A4257
:101EB00023D0FF2399465AE74A45F6D0FF23994697
:101EC00055E7821E023B60639A420DD2708900235F
:101ED00000210BF0D3FA326D736D801859410290D6
:101EE0000391A063E16372E70022002368360020BB
:101EF000A263E3632563266416E7DA7E997E120205
:101F00000A43D6D119784032914301394A00521818
:101F10009E7892005218597836020E43FF2AC8D88C
:101F2000F868510046520991D97806908C4660466F
:101F3000197909020143002E64D1314A9142B8D186
:101F40009E795A79360216432D4A9642B1D11A7AB1
:101F5000D97912020A439446294A9445A9D19E7A16
:101F60005A7A36021643264A9642A2D1DA7B997BE8
:101F700012020A439446224A94459AD15E7C1A7C06
:101F8000360216431E4A964293D1DA7C997C12029D
:101F90000A4394461A4A94458BD15E7D1A7D3602D7
:101FA0001643174A964284D1DA7D997D12020A437C
:101FB0009446134A944500D07BE75E7E1A7E360233
:101FC00016430F4A964200D073E75A7F197F1202D8
:101FD0000A4394460A4A944500D06AE7DE7F9A7F16
:101FE00036021643064B9E4200D062E74B46013B49
:101FF000DBB29946BBE6022092E6C046000020F024
:10200000FFFF0000561CFF2A00D152E77000069E19
:10201000844631529E79587936020643002993D07E
:10202000FE2A00D145E706986146844661444E8009
:10203000D87902918046187A00028446404661466B
:1020400008438446002E87D0FD2A00D131E70100E5
:10205000029881809E7A597A36020E4361460029A1
:1020600000D180E7FC2A00D123E7C680997B88460F
:102070004046D97B090208438446002E00D17AE706
:10208000FB2A00D115E70100029801815E7C197CD2
:1020900036020E436146002900D173E7FA2A00D1C7
:1020A00007E74681997C88464046D97C0902084367
:1020B0008446002E00D16DE7F92A00D1F9E601002F
:1020C000029881815E7D197D36020E4361460029AA
:1020D00000D166E7F82A00D1EBE6C681997D8846F3
:1020E0004046D97D090208438446002E00D160E7AE
:1020F000F72A00D1DDE60100029801825E7E197E9A
:1021000036020E436146002900D15AE7F62A00D173
:10211000CFE64682197F88464046597F0902084328
:102120008446002E00D155E7F52A00D1C1E6010012
:1021300002988182DE7F997F36020E436146002934
:1021400000D14FE7F42A00D1B3E6C6821B785B06C4
:1021500000D44BE7002E00D148E7F32A00D1A8E6CF
:10216000099B06989C460023604443833EE74A4609
:10217000002A48D119784A08C9010A4359785218E7
:10218000D1B24908D20111439A78C9B28918CAB2AA
:102190005208C9010A43D978D2B25218D1B24908BB
:1021A000D20111431A79C9B28918CAB25208C901B9
:1021B0000A435979D2B25218D1B24908D201114317
:1021C0009A79C9B28918CAB25208C9010A43D979A1
:1021D000D2B25218D1B24908D20111431A7AC9B207
:1021E0008918CAB25208C9010A43597AD2B25218A0
:1021F000D1B29B7A4908D2010A43D318089ADBB2BC
:102200009A4200D1ECE501235B42002023658BE577
:102210000368F0B51A7857469A46131F0C005942C6
:102220004B41FE215B4209050B4080214546DE46BD
:102230004E4689038C46E0B5634405008DB0A34249
:1022400043D9E30641D1836804639846002B44D008
:1022500053465B895B029B469C4200D24BE143465E
:10226000012B32D047465E46D0464346DB6ABB422E
:102270002BD943461B789946032B00D18BE062D8BB
:10228000012B4AD0022B20D13B0A02930023039357
:102290004346029803991A6C5B6C12184B414046F6
:1022A000FEF790FB00284CD1FF237F005B001F400E
:1022B000474468373B787F783F021F4391E0002313
:1022C0000022AA63EB6343466B6302200DB0F0BCAF
:1022D000BB46B246A946A046F0BD022A00D98EE010
:1022E0005246128963099342EFD25346986CD96CD7
:1022F00043466B630300A863E9630B43E5D0002307
:10230000620A12184B41AA63EB635346E405683333
:10231000E40D1B1900202B64D8E77B089B46BB44C7
:102320005B465B0A009300230193434600980199A2
:102330001A6C5B6C12184B414046FEF743FB0028B9
:102340006ED00120C2E7042BBFD12A696B6910004F
:10235000E97918435CD0A868002859D0381A81461A
:10236000404640898446022900D0BEE00120404218
:10237000C11712184B41D905500A08436246590A41
:1023800000230AF063FA81459FD847D001377B1CB0
:102390002AD101209AE7FB090493002305934346C1
:1023A000049805991A6C5B6C12184B414046FEF775
:1023B00009FB0028C5D1FE2369225B00BF001F4036
:1023C0004744953BBA5CFF3BFB5C12021A436A230D
:1023D000FB5C1B0413436B22BF5C3F061F433F01A2
:1023E0003F09012F00D870E75346DB6ABB4200D893
:1023F0006BE7A41BA6423BD82B68984635E75346AB
:1024000042469B6CC271002B00D169E798461FE7DA
:10241000002900D059E7EB69002B3FD0374FE3E7A5
:102420005B465A1CDB05DB0D434468331B7809927D
:102430009B46530A06930023079343460698079941
:102440001A6C5B6C12184B414046FEF7BBFA002831
:1024500000D076E7099AD3055A46DB0D434468332A
:102460001B781B0213434A463A4214D01F09B8E7AF
:10247000B8464246023B023A9A4200D31FE753460F
:102480000021588900230AF0F9FF53461A6D5B6D4D
:10249000801859412CE71B051F0DA2E7FB090A9381
:1024A00000230B9343460A980B991A6C5B6C121825
:1024B0004B414046FEF786FA002800D041E7FE2354
:1024C00069216822BF005B001F404744795CBA5C09
:1024D000090211436A22BA5C12040A436B217F5C31
:1024E0003F0617437F007F087BE7032993D1AB6941
:1024F000994590D24AE75346DB6ABAE7FFFFFF7F70
:10250000F0B557464E464546DE460368E0B51B69C2
:10251000002299465C784D4600230700601C89B074
:102520004001022A06D12A795908DB03D318052273
:102530005B189BB2A95C5E08DB03CB189B190132C8
:102540009BB29042EDD8AB701B0AEB703800396D2E
:10255000FFF75EFE002800D0ECE0BA6BFB6B0121B8
:102560003E680695B046A2468B4615001E000790B1
:1025700043461A6E5B6EAA4201D1B34226D0414651
:10258000497844468C46414609796834A146002979
:1025900000D08DE05B462A00009349463300604638
:1025A00007F092FD00280ED0464601225242D31772
:1025B000326673660125280009B0F0BCBB46B246FE
:1025C000A946A046F0BD43461D665E662022386CD3
:1025D00006990BF0A7F85B463C6823715346002B25
:1025E00000D1A2E02023994623783D6B043B5A1E7C
:1025F0009341534A5B421340802252059446A944BA
:102600006344994505D300220023BA63FB63022586
:10261000D1E7BD6BFE6B2B003343F8D04B46DB0597
:10262000DA0D0292002B0DD101220023AD185E417C
:10263000796BBD63FE63002914D14B4622895B0987
:102640009342E0D2A046069B6834203306934B4663
:102650003B63029B9C4601235B4264449C463C6472
:10266000E24485E74A466389520A013BA0461A4282
:10267000E9D13800FEF710FB0128C8D9431C99D0D6
:10268000E36A9842BFD2821E023B78639A424ED2DE
:102690000023002160890AF0F1FE226D636D80182D
:1026A000594105000E003B68BD63FE639846CAE7CA
:1026B000594660460091210007F030FD002800D007
:1026C00078E7434618711A6E5B6E190043461B6B20
:1026D00010000493002305934346029003915B7816
:1026E0009C4643461A6C5B6C801A994102000B00B1
:1026F00004980599994200D04CE7904200D849E7E8
:102700004346DB78022B00D044E704980599029AEF
:10271000039B12184B41012160460091494607F086
:10272000FDFC43465B789C4634E7079D43E7002564
:102730000026B8E7071C022800D90227FDB23AE7B5
:10274000000020F0F0B5DE464E4657464546E0B55F
:1027500003688DB000219B460390FFF759FD814629
:10276000002836D15B461B78042B00D1ABE1012356
:10277000039C5B4223650133FF335F46A56BE66B29
:10278000984607935B4668370A9006970293029B28
:102790001A6E5B6EAA4201D1B34224D002994878E6
:1027A00009798446002900D001E101232A00009321
:1027B00060463300069907F087FC029B002810D082
:1027C0009B4601225242D31759460A664B660123A3
:1027D000994648460DB0F0BCBB46B246A946A04655
:1027E000F0BD1D665E66256C2B78002B28D03F223D
:1027F000E97A0A40A271E52B03D0090744D50F2AD4
:1028000058D001235B4223650133FF3398462022D1
:10281000236893469A46236B9B4453461B78043B9C
:102820005A1E9341C34A5B4213408022520594468C
:1028300063449B4507D30022002303998A63CB633B
:1028400004239946C5E7A56BE66B2B003343F7D00D
:102850005B46DB05DA0D9146002B0ED101220023E9
:10286000AD185E41616BA563E663002974D15246E1
:102870005B4612895B099342DDD25B462363534674
:1028800068334B44236482E70F2A13D04346002B5E
:1028900000D1CBE04F230122E35C1A42B1D12100E9
:1028A00028000A32443113F04DF80028A9D10A9BC0
:1028B00099468EE74F214022615C0A42A7D11A4215
:1028C00000D1ADE0697B9343226B07912265FF2124
:1028D0006A7B884607998A4299D1EA7EA97E1202CC
:1028E0000A4300D09FE0029A2978D2680B93914660
:1028F0003F220A40013A5100891889008A469244D1
:102900008D4A574690460D22424493464646012240
:10291000089414E0FF2F1DD8200002F0D3FE7B1C8A
:102920009A464B467F008046F85A02F0CBFE80451F
:1029300010D12200574601365E4500D12CE1337894
:10294000E95CEB185C7824020C43002AE2D17B4B53
:102950009C42F0D0089C66E053465A465B89520A76
:10296000013B1A4289D12000FEF796F9012800D8D0
:10297000A6E0431C00D12AE75346DB6A984200D305
:1029800059E7821E023B60639A4200D301E153463D
:102990000021588900230AF071FD53461A6D5B6DC2
:1029A0008018594105000E00A563E66365E7012123
:1029B0000091069907F0B2FB002800D007E7029FBC
:1029C0003A6E7B6E3871190010003B6B08900991CC
:1029D0000493002305937A7894463A6C7B6C801AB2
:1029E000994102000B0004980599994200D0DCE659
:1029F000904200D8D9E6029BDB78022B00D0D4E6C7
:102A000004980599089A099B12184B4101216046C8
:102A10000091069907F082FB029B5B789C46C4E616
:102A2000984500D153E7FF239846F0E62A785308EB
:102A3000D20113436A789B18DAB25208DB011A43B9
:102A4000AB78D2B2D218D3B25B08D2011343EA7882
:102A5000DBB29B18DAB25208DB011A432B79D2B2EF
:102A6000D218D3B25B08D20113436A79DBB29B1848
:102A7000DAB25208DB011A43AB79D2B2D218D3B220
:102A80005B08D2011343EA79DBB29B18DAB2520831
:102A9000DB011A432B7AD2B2D218D3B25B08D2012F
:102AA00013436A7ADBB29B18DAB25208DB01134394
:102AB000AA7A9B18079ADBB29A4200D0EAE6F6E6B9
:102AC0000223994685E65B46DB6818889C1C002338
:102AD0009846002816D0FF251E0002F0F3FDF303F0
:102AE00082B27608284036189B199BB2DE03120A80
:102AF0005B089B180234F618A31E1888B6B200288B
:102B0000EBD1B04625270398FFF7D4F800283ED133
:102B10005B4624221B69995CDA5D12020A43424536
:102B2000F1D123229D5C002D47D000224024924603
:102B300008E0C046000020F0A48F0110FFFF000055
:102B40005B461B691F22224200D102341A5D1B1909
:102B500058780002104302F0B5FD5B465246DB6830
:102B600052000600D05A02F0ADFD8642CBD10123BF
:102B70009C46013DEDB20234E244002DE0D15346C3
:102B80005B005A46D268D35A002BBCD121E681465D
:102B90001FE60025002607E729780B9B089C4906BD
:102BA00007D5002A05D049467A00525A002A00D09B
:102BB00039E7013BDBB2984629E60023E1E7C0464E
:102BC000F0B5DE4657464E464546E0B50F00016873
:102BD0003B789DB0834604912F2B43D05C2B41D092
:102BE0000023CA6909788260C361042943D1002A9D
:102BF00041D05C4604995D46086A4A6A08902062A2
:102C000006A8C271FF2062620C00896A8243A96231
:102C100006A806940A920B930D931A91FFF7F8FAFF
:102C2000002800D0BEE006A8FEF766FF021E00D016
:102C3000B8E03821049B1B69585C0131595C0902DA
:102C400001433A20185C000408433B21595C6A6147
:102C500009060143296121329A5C02231340EB717A
:102C600009E001373B782F2BFBD05C2BF9D00023F8
:102C70005A469360D3613B781F2B00D8CAE1BF4A04
:102C800001925A46BE4912688946D268BD499246A9
:102C90003F25002288461AE09CB2160001371F2CFF
:102CA00068D92F2C00D185E05C2C00D182E07F2CEC
:102CB00006D81B040198190C13F016FB002870D1DC
:102CC000FE2E6ED85346721C7600F4523B7859B2F1
:102CD0000029E1DA19001F208143C02900D185E0D5
:102CE00019000F208143E02900D193E0072019004B
:102CF0008143F02955D11840ED397B781C00AC4355
:102D0000802C4ED1BC7880012B4003432000A84387
:102D1000802846D19B012C401C43022900D18CE124
:102D2000FB781900A94380293BD12B40A4011C4307
:102D300023009549803B8B4233D88021934B090176
:102D4000E3188B422DD3802304375B029C425ED371
:102D500049468F4B5046E3189B010B404146A40562
:102D6000A40D23430B43561C190C52009CB2115264
:102D70001F2C96D80424012E28D153461B882E2BB5
:102D800000D18BE1834BF3185B0053441A88202A4F
:102D900001D02E2A41D1013E023B002EF6D15346EE
:102DA0001E8006201DB0F0BCBB46B246A946A04618
:102DB000F0BD01373B782F2BFBD05C2BF9D00024E2
:102DC0001F229A426441A400012ED6D0022E00D0C8
:102DD00044E153465B882E2BD4D153461B882E2BBF
:102DE000D0D10023524693802E335BE179780800DE
:102DF000A8438028D5D11F203F2403409B010C40CD
:102E00001C432100604B80399942CAD80237160012
:102E1000A4B255E71840DE396FE773009C460021E5
:102E20005346624699521B88202B00D0ECE0534653
:102E300002331A000233981E00880D000131202849
:102E4000F7D09046023503231C436246023A130032
:102E5000534403E0013E023B002E02D01A882E2A82
:102E6000F8D158460B22202144300AF055FC434645
:102E70001B889846002B44D00023029308339946C0
:102E8000002303933B0037002E0045469846202D33
:102E900000D181E02E2D00D18AE0039B4B4500D26A
:102EA00099E04B460B2B00D188E0B74200D1BAE045
:102EB00003231C43B74200D3B5E044235A46D25CF7
:102EC0004746E52A02D15946E03ACA544B46082BF8
:102ED00000D1C9E00C23029A13400C2B00D190E0E2
:102EE000029BDB439B0700D18BE0A30709D4029B25
:102EF000DB0701D510231C43029B5B0701D5082388
:102F00001C435B464F2558465C55FFF71BFC5B4650
:102F10005B5D00280ED0042800D043E702001A4071
:102F20009B0600D40DE1002A25D080235A46535534
:102F3000002037E75B07FBD45B469B79DB0600D4B8
:102F400002E1049B19785B46042900D1BDE01A6BAD
:102F5000049BD205D20D68339B18DA7E987E12024C
:102F60000243032905D1197D5B7D1B020B431B0422
:102F70001A435B469A603B7883E6C046108F011087
:102F80000000FF0300DC00D87FFF10000028FFFFD7
:102F90000000FFFFFFFFFF7F03231C433300E4B269
:102FA00052465E1C5B009D5A002D00D06FE784E7FF
:102FB000B742F1D14B460B2B00D07BE744235A4656
:102FC000D25C4746E52A00D1C0E00323029A1C43A5
:102FD0000933134081E7B742ECD07F2D4BD829004D
:102FE0005F4813F081F9002800D191E003235F25A9
:102FF0001C43039B5A1C5B4444331D7003923300F3
:10300000CEE702231C437CE7D04601252E2B00D0BF
:103010001BE718E759464F2380225846CA5400211F
:10302000FFF7F6F8BEE60B22029B91469B00DBB24F
:10303000033A029303923B00B2E723004949803BE5
:103040008B4200D9ADE68021474B0901E3188B4242
:1030500000D2A6E616000337A4B231E6002E00D057
:1030600090E653461E809CE6029B9B00DAB20292D9
:103070000C22134031E70223B62128002343FF31FD
:10308000059302F0FFFA0500030632D57F23374A85
:103090000340D55C059C002DA8D0A0E70023524634
:1030A00053802033584644222E21815401328354C8
:1030B0002F4B013283522F4A82644C2283524E237B
:1030C0002C3AC2542E3B1C431BE75A469B68594678
:1030D00013621369FF2293435A46D27913435A4627
:1030E0005362136D9362049B1869FDF7B7FB3B783D
:1030F000C7E5FF28CED94B46039A013B9A4229D215
:10310000531C5A444432010A059C1170C5B271E740
:103110002B00413B9BB2192B0CD92B00613B9BB27E
:10312000192B04D80123029A203D1A430292039BD3
:10313000EDB25FE70223029AEDB21A430292039BBB
:1031400058E7002A00D02DE605202BE60522594637
:10315000CA543AE703234A461C43039233001FE74D
:103160001C8F01107FFF10000028FFFF248F01102B
:103170002020000020202020F0B5DE464E464546A7
:103180005746E0B5036881468B4698468DB00029C6
:1031900068D143465F699B69002F51D1002B00D154
:1031A000C2E143461B78042B00D179E14346DB6A38
:1031B000022B00D8B8E10127464602243D00F36AFD
:1031C000A3423BD93778032F00D13BE100D99CE0E3
:1031D000012F00D1F8E0022F30D1230A02930023FF
:1031E000039302980399326C736C12184B413000B0
:1031F000FDF7E8FB00287ED1FF2263005200134058
:10320000F31868331A785B781B02134300D1B5E0DA
:10321000012B13D0A54200D186E14346DB6A01347D
:10322000A34200D9CDE02F00012F00D17CE14B4615
:1032300002241E683D00F36AA342C3D801245CE067
:103240004246D26ABA42A9D9002B00D16CE143466A
:103250001B78042B00D124E17C1CA242E4D9464611
:103260003D00ACE7FDF718FD04000128E6D9431C3A
:1032700041D04346DB6A83423FD842469269002AE6
:1032800000D151E142461278042A00D15CE15A464D
:10329000551C2C00AB4200D8022421004846FDF703
:1032A000FBFC0128CAD0431C25D04346DB6A00281A
:1032B00000D03BE1002C00D198E1A342BED901220D
:1032C000210040465242FDF743FC002811D15B46E5
:1032D000002B00D117E1012BB0D04346DB6A9B45A0
:1032E000ACD2220059464046FDF732FC002800D1FE
:1032F00009E10128A2D10124644220000DB0F0BCF4
:10330000BB46B246A946A046F0BD042F96D14B4617
:10331000186959690200DB790A4332D1002B00D0C9
:103320008CE74B46DB69002B00D073E7E3090A9377
:1033300000230B930A980B99326C736C12184B4153
:103340003000FDF73FFB0028D5D1FE226921520055
:10335000A3001340F318953A595CFF3A9A5C0902AE
:1033600011436A229A5C12040A436B215B5C1B06C0
:1033700013435B005A08002B00D08CE04346DB6A05
:103380009BE74A469268002AC8D0A21A92467289E0
:10339000022B00D00CE101267642F71736184F4178
:1033A000FB05700A1843790A002309F04FFA824599
:1033B00000D943E700D12DE7631C013300D029E792
:1033C00099E74B461E68FAE663089A46A2445346BC
:1033D0005B0A00930023019300980199326C736C8F
:1033E00012184B413000FDF7EDFA002800D082E7BB
:1033F0005146CB05DB0D5246F3186833197800238C
:1034000001328A46510A0793069106980799099254
:10341000326C736C12184B413000FDF7D3FA002860
:1034200000D068E7099AD3055246DB0DF3186833DC
:103430001B781B021343274200D1B3E01B0900D0C5
:10344000E6E69BE7E30904930023059304980599B6
:10345000326C736C12184B413000FDF7B3FA002840
:1034600000D048E7FE2269215200A3001340F31860
:10347000953A595CFF3A9A5C090211436A229A5CB8
:1034800012040A436B215B5C1B0613431B011A09E0
:10349000002B00D172E7012A00D0BBE601242CE703
:1034A0000127012239004046FDF7F0FA431E0400CF
:1034B000033300D921E7012207231600811E0B40A8
:1034C0009E400D05924600230A0B4146886DC96D4A
:1034D00012184B414046ED0DF6B2FDF773FA002885
:1034E00000D008E7454468352B78334200D0A5E684
:1034F0005E40524643462E701A715B46002B25D122
:103500004A460233D37143469A695C61DB6A023BE7
:103510009A4202D84346013A9A61434601225B79B6
:10352000134342465371E8E60024E6E642465769F3
:10353000012F5BD99F4259D27C1C9C4200D376E676
:103540004B463D001E683AE65F46AAE74B46DB79EC
:10355000022B40D05A464B460132DB69A24230D0A2
:10356000002B35D14A464D465E460133D361F01AF1
:103570002200411C012B00D0821C012900D85DE6ED
:103580002868C36A994200D358E6FDF7E1FA00289B
:1035900000D0AEE6EB69013BEB61002BE7D10133D4
:1035A000EB61B0E71B051A0D002B00D073E7E5E6D1
:1035B000032B00D0B5E64B469B699A4500D3B0E695
:1035C000FAE60222002B00D05A1C4B46DA619AE739
:1035D0004D465E46CBE77B1CA34294D04B464A4601
:1035E0009B68FB1A93610323D371B3E72C009D42C0
:1035F00001D35F4618E64B461E68012D00D81DE634
:103600005F463D00DBE5C046F0B5DE4657464E4618
:103610004546E0B503688BB003910021040099464C
:10362000FEF7F6FD071E0AD0042800D10727380050
:103630000BB0F0BCBB46B246A946A046F0BDA36B9A
:1036400000219846E36B4F469A464B468B466831BD
:103650001A6E49445B6E06910790424501D153456D
:1036600019D039797E78002900D0A1E001234246A3
:10367000009330005346069906F026FD002806D038
:1036800001225242D3173A667B660127CFE74346B1
:103690003B6653467B66236C3A781B78042A40D0FD
:1036A000E52B41D0002B3FD000239B462568266B9D
:1036B0002B782036043B5A1E9341594A5B421340F3
:1036C00080225205944663449E4205D30022002383
:1036D0000727A263E363AAE7A06BE16B03000B4338
:1036E000A4D0F305DA0D9146002B11D1002301225D
:1036F00080185941636BA063E1639A46002B1BD18C
:103700002A8973099342E1D23B6E98467B6E9A46B2
:1037100068354D444246534680468A4626632564B2
:103720009BE75BB2002BBFDB01239C46039BE3447A
:103730009B45BBD1079F7AE76A89531E720A1A42DA
:10374000E2D151462000FDF7A7FA80460300012888
:1037500061D9013399D0EB6A984217D32000616B8D
:10376000FFF70AFD8046031E00D15FE7012852D013
:1037700001338AD001002800FCF79AFF002800D00E
:1037800083E70422E3791343E371EB6A4246023B89
:103790006263023A9A4240D200230021688909F00C
:1037A0006DFE2A6D6B6D80185941A063E163ABE734
:1037B000012130000091069906F0B0FC002800D0ED
:1037C00063E73B6B387104930023386E796E059381
:1037D000089009913A6C7B6C801A99417E780200BE
:1037E0000B0004980599994200D03FE7904200D819
:1037F0003CE7FB78022B00D038E708980999049A37
:10380000059B12184B41012130000091069906F0EA
:1038100085FC7E782AE7022709E700200021C4E71B
:10382000000020F0F0B54546DE4657464E464F2391
:10383000E0B5C35C050098465F2342469FB09A43BB
:1038400000D0C8E203680021D86801930388002BE8
:1038500004D001314B00C35A002BFAD1019B1E78D2
:10386000042E00D1AFE32E004436320008AB02969E
:103870009A46D0CAD0C34346DB0700D42FE14F237A
:103880004022EA544E3B9946443300934346049306
:10389000019B012498460700029E05913300524681
:1038A00003CA03C31188198092789A704B46052B7E
:1038B00000D8E7E23A88002A77D08021AC46C54894
:1038C000490225005B001540ED18023753080D42F0
:1038D00000D045406D0023405B1995080B4200D095
:1038E000434025405B00EB18D5080B4200D0434015
:1038F00025405B00EB1815090B4200D043402540E2
:103900005B00EB1855090B4200D0434025405B009B
:10391000EB1895090B4200D0434025405B00EB18A3
:10392000D5090B4200D0434025405B00EB18150A37
:103930000B4200D0434025405B00EB18550A0B4278
:1039400000D0434025405B00EB18950A0B4200D0A5
:10395000434025405B00EB18D50A0B4200D04340A2
:1039600025405B00EB18150B0B4200D0434025406F
:103970005B00EB18550B0B4200D043405B00254029
:10398000ED18930B0D4200D045406D0023405B19AC
:10399000D20B0B4200D043405B00D3180B4200D047
:1039A00043403A88002A8CD165460F221A40110004
:1039B00030311809392901D93732110006AAD171DD
:1039C0000F2B00D861E20F22024017003037190A8E
:1039D000392F01D93732170006AA97710F2800D85E
:1039E0008AE20F220A4017003037180B392F01D90D
:1039F0003732170006AA57710F2900D8A8E20F2204
:103A0000024017003037190C392F01D9373217000F
:103A100006AA17710F2800D8BDE20F220A4017002E
:103A20003037180D392F01D93732170006AAD77051
:103A30000F2900D89FE20F220240110030311B0EE7
:103A4000392901D93732110006AA91700F2800D800
:103A5000ABE20F2213401A003032392A01D9373332
:103A60001A0006AB5A707E2306AA137000220023A8
:103A700006A9895C1700F154991C8C4606A98B464F
:103A80005F447F78F118901C4F70062B0ED00828E9
:103A900000D0A9E120226146D81C7254052B05D024
:103AA00008222021121A301809F036FE2800FEF7ED
:103AB00049FE031E09D101239C46E1444B46642B79
:103AC00000D1CCE34346DF68E8E6049A070090465D
:103AD00005990296042800D07EE14B33EA54434610
:103AE0009B0700D411E20C310C000D21200008F0DE
:103AF0006FFE411C82462800FFF786FD071E00D09E
:103B00006AE10C2C00D107E25346296B5B012800C7
:103B1000C91AFEF77DFB071E00D05DE14423EA5C75
:103B20002E005308D20113434522AA5CFF249B18A0
:103B3000DAB25208DB011A434623EB5CD2B2D21848
:103B4000D3B25B08D20113434722AA5CDBB29B18B5
:103B5000DAB25208DB011A434823EB5CD2B2D21826
:103B6000D3B25B08D20113434922AA5CDBB29B1893
:103B7000DAB25208DB011A434A23EB5CD2B2D21804
:103B8000D3B25B08D20113434B22AA5CDBB29B1871
:103B9000DAB25208DB011A434C23EB5CD2B2D218E2
:103BA000D3B25B08D20113434D22AA5CDBB29B184F
:103BB000DAB25208DB0113434E22AA5C55469B1829
:103BC000DBB204930F239846034B9946029B9A4617
:103BD0002FE0C04621100100FDFF0000DC701C71C9
:103BE0005C719C71DC711C725C729C729C73DC73E6
:103BF0001C745C749C74DC741C755C759C75DC7541
:103C00001C765C761C775C779C77DC774022E9B287
:103C100011430291029A30001A700123019A137124
:103C2000FDF712F9002800D01CE3013D002D00D162
:103C300020E3B26BF36B019F3800FCF7C3FE021E5A
:103C400000D00FE3E8B2336C02900498F96858731F
:103C50004046D8722000284001381A739A76DA76E6
:103C6000420012189200121850000F5ABC465F70A2
:103C70003F0A9F7001277F42BB46DC446746BFB2C4
:103C80004F45ABD8013252008F5ABC46DF703F0A15
:103C90001F7101277F42BB46DC446746BFB24F45D8
:103CA0009ED88A185788BC465F713F0A9F710127CA
:103CB0007F42BB46DC446746BFB24F4592D89788E7
:103CC000BC46DF713F0A1F7201277F42BB46DC44BE
:103CD0006746BFB24F4587D8D788BC465F723F0A58
:103CE0009F7201277F42BB46DC446746BFB24F4507
:103CF00000D97BE71789BC469F733F0ADF73012712
:103D00007F42BB46DC446746BFB24F4500D96FE7F0
:103D10005789BC461F743F0A5F7401277F42BB4628
:103D2000DC446746BFB24F4500D963E79789BC467C
:103D30009F743F0ADF7401277F42BB46DC4467461D
:103D4000BFB24F4500D957E7D789BC461F753F0A18
:103D50005F7501277F42BB46DC446746BFB24F45D3
:103D600000D94BE7178ABC469F753F0ADF750127CC
:103D70007F42BB46DC446746BFB24F4500D93FE7B0
:103D8000578ABC461F763F0A5F7601277F42BB46B3
:103D9000DC446746BFB24F4500D933E7978ABC463B
:103DA0001F773F0A5F7701277F42BB46DC446746A7
:103DB000BFB24F4500D927E7D28A170A9A77013A4E
:103DC00092B2DF774A4500D920E709184A8B002ACA
:103DD00000D01FE71AE7062738001FB0F0BCBB462B
:103DE000B246A946A046F0BDD91C029106A9085CBE
:103DF0006146D71C7054052B00D157E6082F07D118
:103E00002022D91C181D7254042B00D048E64DE620
:103E1000191D8C4606A9CF5DD91C101D7754042BA3
:103E200000D143E6082807D120226146581D72546C
:103E3000032B00D034E639E6591D029106A9085C2F
:103E40006146571D7054032B00D12FE6082F07D170
:103E50002022591D981D7254022B00D020E625E621
:103E600006A9CF5D591D0632981D7754022B00D14B
:103E70001CE6082A2ED1183232540720012B00D01C
:103E80000EE613E6303306AAD3717E2306AA937199
:103E90003A3BEB5C0622202B35D0009BEB5C202BC1
:103EA00077D04623EB5C202B63D0032A20D0472316
:103EB000EB5C202B1CD0042A1CD04823EB5C202B6D
:103EC00018D0062A7CD14923EB5C203B591E8B413C
:103ED0000533CDE506A9895C3154002B00D0E5E51A
:103EE0002033062A01D106ABDB794B22AB54DDE54A
:103EF0000323BDE50423BBE57E2353713A3BEB5C12
:103F00000522202BC9D10023B2E501212800FFF7AB
:103F10007BFB071E00D05FE7AA6BEB6B0198FCF7F9
:103F200051FD071E00D057E720220021286C09F020
:103F3000F3FB0B220299286C09F0F4FB4F23E95C98
:103F40002A6C373B0B4013730123019A137143E72B
:103F50007E2313713A3BEB5C202B00D196E1452385
:103F6000EB5C202B00D189E14623EB5C0422202B63
:103F70009DD102237CE57E2393703A3BEB5C0222C9
:103F8000202BC0D04523E95C0222433B202900D0EE
:103F90006EE501236CE57E23D3703A3BEB5C032294
:103FA000202B00D079E7002362E57E2353703A3B53
:103FB000E95C0122433B202900D059E5002357E565
:103FC0000522052354E50E3108000F2108F000FCFE
:103FD000811C04002800FFF717FB071E00D0FBE63A
:103FE0002B6B013464011B1B2B65EB791E4200D146
:103FF0008BE0B343EB71032B00D1E5E0EB696C6B15
:10400000002B17D0E21A511C012B00D12CE10232F7
:10401000012900D825E12868C36A994200D320E12C
:10402000FCF796FD002800D01CE1EB69013BEB6139
:10403000002BE7D1AB68002B67D0FF222B6808ACC0
:1040400008932B6AA96A0A936B6A2000E371934371
:104050000C9300231C910D930F93FEF7D9F80028C1
:1040600000D0FFE02000FDF747FD002800D0F9E078
:104070000021019E738958022A696B6912184B410D
:10408000382031692A616B610A543920160A0E54AE
:104090003A2002920393160C6B460E54100E3B22EC
:1040A0001B7B885401328B54039B0132180A8854BD
:1040B000180C013288541A0E3F232820019ECA543E
:1040C000296933696A690E0A195401301E540E0CAD
:1040D00001301E54090E013019542C21100A5A5473
:1040E00001315854100C01315854120E01315A54F8
:1040F0000122EB79019E13432122316920008B5468
:10410000FEF7FEF9002800D0ACE0019B3F221C69BD
:104110000021661C3000DD6809F0FEFA8523C0220C
:104120002370653BE2540023C1219C468B46A23993
:10413000894661460020B44626000C00BF3A9A46E4
:10414000029240335A46F2540022591C725451468E
:10415000B046BA462E00029A05000233049101943B
:1041600013E022880021100A002A06D0019FD1B254
:104170000137FCB26500019474194746F954614651
:10418000C8544946023319420CD07419002AE8D1A8
:10419000002147460020F9546146C854494602337D
:1041A0001942F2D1280035004646A0460292049AF0
:1041B0005746511C924642461288019C9046C9B20D
:1041C000002A1FD08A46BDE7AB69AC68002B5AD0E5
:1041D0002868012C14D9E3185E1EC36AA846A342BE
:1041E0000ED9651C2A002100FCF7B2FC002839D149
:1041F000B44247D0434618682C00C36AA342F0D8A3
:104200000227E9E5A44623236246F25453460233CB
:10421000737028883400AB1C002828D01D00FF26AE
:1042200001F050FA4246434681B25208304012181B
:10423000DB039B189BB2DA03090A5B085B18D318EF
:104240009BB202359846AB1E18880028E8D1434639
:10425000DAB21B0A242162542522A354BCE50727A5
:10426000BAE502200700B7E501225242D0E600235A
:104270000022EFE75346350002934DE604221F3B30
:10428000FFF7F6FB45460023EB71B7E60023042257
:10429000FFF7EEFBF0B557464546DE464E46E0B525
:1042A00091B00C00150007680090012965D9FB6AE0
:1042B0008B4262D9002A68D13E00012201959346C3
:1042C000B84625009C4258D23778032F00D164E1CC
:1042D00000D96EE0012F00D11BE1022F4DD1230A3E
:1042E00006930023079306980799326C736C121893
:1042F0004B413000FCF766FB002800D07FE0FF2236
:10430000630052001340F31868331F785B781B0278
:104310001F4300D13AE1012F2FD042464346127885
:10432000DB6A042A0AD09C4227D2002221004046A0
:10433000FCF70EFC002821D14346DB6A4246926915
:10434000991E8A4207D2414601328A614A7959460A
:104350000A4341464A710134BC4205D042461278B4
:10436000042A00D17DE03D009F4200D30EE1009B76
:104370003C001E68F36A9C42A6D3022011B0F0BC38
:10438000BB46B246A946A046F0BD3A78042A00D101
:10439000B9E0012DF1D0AB42EFD90122290038005C
:1043A0005242FCF7D5FB0028E8D1009B1E68F36A57
:1043B00083E7042FE1D1009F386979690200FB7916
:1043C0000A431ED0BA68002A1BD0A21A91467289ED
:1043D000022B00D01AE101267642F71736184F411A
:1043E000FB05700A1843790A002308F02FFA81456B
:1043F000C3D800D112E1671C7B1C00D08DE70120DF
:10440000BCE7002BB9D1009BDB69002B00D005E194
:10441000E3090E9300230F930E980F99326C736C7F
:1044200012184B413000FCF7CDFA0028E7D1FE22EC
:1044300069215200A3001340F318953A595CFF3AE2
:104440009A5C090211436A229A5C12040A436B21A6
:104450005B5C1B0613435B005F08002B00D05AE730
:1044600094E0641B023D2B0B02930023039343460D
:10447000029803999A6DDB6D12184B412905C90DFD
:1044800089460721294001258D40390001264F46E4
:104490008946EDB201200021801859410A900B9104
:1044A0004046FCF78FFA0028A9D14346DA191100DB
:1044B00068310B782B4200D15FE76B400B704146AF
:1044C000013C0E71002C00D191E08020800009E0B9
:1044D00011006B4068310B704146013C0E71002C9D
:1044E00000D184E06D00EDB2002D09D10137013516
:1044F000874200D186E04346DA19130068331B78FF
:104500002B42E5D139E7009AD279022A00D040E760
:10451000D2E663089946A1444B465B0A0493002304
:10452000059304980599326C736C12184B41300056
:10453000FCF748FA002800D061E701234B449A4673
:104540004B46DB05DB0DF31868331B789946534661
:104550005B0A0C9300230D930C980D99326C736CCD
:1045600012184B413000FCF72DFA002800D046E726
:1045700053464A46DB05DB0DF31868331B781B02F4
:10458000134327424CD01F0900D0C4E647463B786E
:10459000019D042B30D00020F0E6E30908930023AE
:1045A000099308980999326C736C12184B413000CA
:1045B000FCF708FA002800D021E7FE22692152000A
:1045C000A3001340F318953A595CFF3A9A5C09022C
:1045D00011436A229A5C12040A436B215B5C1B063E
:1045E00013431B011F09002B00D094E6CEE74F4672
:1045F00043463D00DB6AB7E6002D17D1009B002043
:10460000DD71BBE600270A9A0B9B43E7032B00D022
:10461000F9E6BB69994500D3F5E6ECE6154F7CE673
:104620001B051F0D002B00D075E6AFE7009EF37948
:10463000002B15D1B4680CE021003000FCF72CFBF6
:10464000012800D899E6431C00D1D8E60134844201
:10465000A1D1AC42F0D10223009A0020D3718DE6A3
:10466000032B98D1B368AB4295D8B2699B18AB4283
:10467000F1D290E7FFFFFF7FF0B583B0019000918A
:10468000081E00D1D3E00C0001E03A2B63D0237860
:1046900001341F2BF9D8674B1D782B00664C98000E
:1046A0002158002945D00026644B26501F68B94286
:1046B00060D01E69B14261D01E6AB14263D01E6BE8
:1046C000B14265D01E6CB14267D01E6DB14269D057
:1046D0001E6EB14200D16BE01E6FB14200D16DE0A1
:1046E00080269F59B94200D16FE090269F59B94268
:1046F00000D171E0A0269F59B94200D173E0B026E5
:104700009F59B94200D175E0C0269F59B94200D1E6
:1047100077E0D0269F59B94200D179E0E0269F5931
:10472000B94200D17BE0F0269F59B9421FD0002347
:104730000B70019B002B03D000215D70197023507A
:104740000020002A01D103B0F0BD0022684601A973
:10475000FCF7A0FCF7E70378303BDDB2092D66D803
:10476000811C0B208C42EED1032BECDC96E700275A
:104770009F51DCE71E601E69B1429DD100261E617B
:104780001E6AB1429BD100261E621E6BB14299D1B6
:1047900000261E631E6CB14297D100261E641E6D5A
:1047A000B14295D100261E651E6EB14200D093E73E
:1047B00000261E661E6FB14200D091E700261E67DC
:1047C00080269F59B94200D08FE700279F5190263D
:1047D0009F59B94200D08DE700279F51A0269F59CD
:1047E000B94200D08BE700279F51B0269F59B942AC
:1047F00000D089E700279F51C0269F59B94200D0B9
:1048000087E700279F51D0269F59B94200D085E7FE
:1048100000279F51E0269F59B94200D083E7002727
:104820009F51F0269F59B94200D080E79FE70B20A7
:1048300089E7C0464AB10320F86A0020086B0020CF
:10484000F0B54E464546DE465746E0B59FB0814638
:1048500015000591002800D11CE13F2414402200DE
:1048600007A905A8FCF716FC071E0AD000234A4634
:10487000136038001FB0F0BCBB46B246A946A04644
:10488000F0BD8C20079BC0009846089300F0F2FE14
:104890008246002800D1FFE04346D860802342468C
:1048A0009B0053441361059908A8FEF789F91C235E
:1048B00006002B40002800D0A4E018204F2202A9B7
:1048C00009188A5C7F2A00D9CEE13E220A992A4043
:1048D0000291149904928C46CB49089A0E688B4633
:1048E000002E00D1DAE00021964200D16EE25E4651
:1048F0003669002E00D1E1E1964200D173E25E46B6
:10490000366A002E00D1E0E1964200D185E25E4693
:10491000366B002E00D1DCE1964200D170E25E469B
:10492000366C002E00D1D2E1B24200D182E25E4666
:10493000366D002E00D1CEE1B24200D187E25E4654
:10494000366E002E00D1C8E1B24200D199E25E4637
:10495000366F002E00D1C4E1964200D184E2802659
:1049600058468659002E00D1B9E1B24200D195E2F5
:10497000902658468659002E00D1B4E1964200D1C7
:104980009AE2A02658468659002E00D1ADE1B242E7
:1049900000D19FE2B02658468659002E00D1A6E1EC
:1049A000B24200D1A4E2C02658468659002E00D15A
:1049B0009FE1B24200D1A9E2D02658468659002E86
:1049C00000D198E1B24200D1AEE2E02658468659C5
:1049D000002E00D191E1B24200D1B3E2F026584658
:1049E0008659002E00D145E1964200D18CE1002984
:1049F00000D03FE11226002B4AD1504600F03EFE87
:104A0000370033E7002BF8D0042849D17E4B9B4672
:104A10001B68002B49D05B461B69002B45D05B46C9
:104A20001B6A002B41D05B461B6B002B3DD05B46C5
:104A30001B6C002B39D05B461B6D002B35D05B46C1
:104A40001B6E002B31D05B461B6F002B2DD08023BB
:104A50005A46D358002B28D09023D358002B24D06B
:104A6000A023D358002B20D0B023D358002B1CD028
:104A7000C023D358002B18D0D023D358002B14D0E8
:104A8000E023D358002B10D0F023D358002B0CD0A8
:104A9000122706E00927ECE61127EAE6012126E7BE
:104AA0000700504600F0EAFDE0E608A8FEF7BAFE6F
:104AB000002800D092E208231C4343461B78042BB5
:104AC00000D14DE205F098FB189B010A020CC5B21B
:104AD000D2B2C9B2000E9D731A74D9735874189B60
:104AE0009D751A76D9755876189BDD7E9A7E2D02B3
:104AF000154342461278032A05D15A7D197D1202C8
:104B00000A43120415432022DA7200224146189B00
:104B10009A76DA760978032901D11A755A75002236
:104B2000189B1A775A779A77DA77012342461371DE
:104B3000002D00D067E240231C4349464346189DA0
:104B40001A6E5B6E8D650A654B650121A142894134
:104B500008A84942FBF7EEFB4B46D862002800D17B
:104B6000AEE043461A78042A00D139E2EB7EA97EF2
:104B70001B020B43032A05D16A7D297D12020A43D9
:104B8000120413434A4693606B7F2A7F1B02134330
:104B9000AA7F12041A43EB7F1B0613434A46136194
:104BA0000023536100234A464146D3651160CA88F9
:104BB00049468A8030228C5401328B5400220023D3
:104BC0004E468A64CB648A63CB63802260360021C0
:104BD0003000920008F0A0FDA40600D4EAE04B46A5
:104BE0001C695D6923002B4300D1E3E04B469C63C5
:104BF000DD63996843465889430202930023039377
:104C0000002D0ED11FE2C046086B0020029A039BC4
:104C1000A41A9D41431C00D10EE2039B9D4200D883
:104C200090E04846FCF738F801000128EED84B46E2
:104C3000186402274B46DB6A013B0F2B00D930E793
:104C40005A4680201B01D118CA684000824200D118
:104C5000F6E1002A04D0013ACA60002A00D020E719
:104C600000225946CA501CE70626002B00D1C4E694
:104C7000062716E7002B0BD0112202AB9B7F1A42AE
:104C800015D16B070FD5504600F0F8FC0827EDE56D
:104C900002AB9B7FDA060CD4AA0700D58EE02D0765
:104CA00000D548E749E72D0700D446E705E7072781
:104CB000F7E6504600F0E2FC0427D7E501211EE6A6
:104CC000504600F0DBFC0227D0E501211FE6012160
:104CD0002DE6012123E6012131E6012137E60121FC
:104CE00046E601213BE601214BE6012152E6012186
:104CF00059E6012160E6012167E6F02141580029CB
:104D0000B8D09142B6D101215846F4228258029877
:104D1000824200D06BE6F82258468258624500D0A5
:104D200065E60F220499002906D112015A44013187
:104D3000D268FF318A429DD11026002B00D15CE65B
:104D40001027AEE6029A039B9D4202D1944200D9FD
:104D500067E74B461964E3052CD04346DB6A8A1E9D
:104D6000023B9A4200D364E7434658890023190066
:104D700008F084FB43461A6D5B6D801859410300AF
:104D8000029003910B4300D153E702980399EB057E
:104D9000620A1A436B0A12184B4149468A64CB6473
:104DA0004146487801210091310005F08DF9002835
:104DB00000D043E1504600F061FC5AE5DB0700D427
:104DC0006DE7504600F05AFC07274FE55846466805
:104DD0000298864200D08AE558468668B44500D0DD
:104DE00085E500229EE7584646690298864200D033
:104DF00085E558468669664500D080E5012291E741
:104E00005846466B0298864200D088E55846866B25
:104E1000664500D083E5032284E75846466A029837
:104E2000864200D073E55846866A664500D06EE536
:104E3000022277E75846466C0298B04200D076E5E9
:104E40005846866CB44500D071E504226AE758469E
:104E5000466D0298B04200D071E55846866DB44563
:104E600000D06CE505225DE75846466F0298864201
:104E700000D074E55846866F664500D06FE507227E
:104E800050E75846466E0298B04200D05FE558465B
:104E9000866EB44500D05AE5062243E7842686593B
:104EA0000298B04200D063E5882658468659B4453A
:104EB00000D05DE5082235E794268659029886429F
:104EC00000D05EE5982658468659664500D058E5DC
:104ED000092227E7A42686590298B04200D059E556
:104EE000A82658468659B44500D053E50A2219E74A
:104EF000B42686590298B04200D054E5B8265846E8
:104F00008659B44500D04EE50B220BE7C4268659DE
:104F10000298864200D04FE5C82658468659B445C7
:104F200000D049E50C22FDE6D42686590298B0420D
:104F300000D04AE5D82658468659B44500D044E505
:104F40000D22EFE6E42686590298B04200D045E5EE
:104F5000E82658468659B44500D03FE50E22E1E6E2
:104F600042464B4615691A6028004946FBF776FC15
:104F70001E220021A81C08F0CFFB4346186900211F
:104F80001A22263008F0C8FB434620221B691A71FA
:104F900043461D6905F030F9030A6B72030CAB72CE
:104FA00043462872000EE8721A690121212308A8DD
:104FB000D154FDF7A5FA051E38D14B469968002952
:104FC00000D1B8E500224846FFF764F94B469D68DA
:104FD000013D43465D61002800D1ACE5070060E576
:104FE0004A460A9B49461362FF220C9B934302AA3E
:104FF000D27F13434A4653621C9B9362434618690F
:10500000FBF72CFCCEE5536E126E2900029203933F
:1050100008A80022FFF73EF9061E00D0EDE4029A30
:10502000039B4046FBF7CEFC013DD2E7504600F023
:1050300025FB2F00FFF71AFC4B4618640127F9E502
:105040000022CA600CE6029B9C4200D9E9E580E69A
:10505000F0B54E4699465746DE46454692460023F1
:105060004A46E0B507000E008BB01360002809D057
:105070000368002B06D01A78002A03D08188DA88CA
:10508000914208D0092420000BB0F0BCBB46B246C8
:10509000A946A046F0BD587804F0EAFFC007F1D455
:1050A0003123FC5C002CEED1013BFA5C930700D469
:1050B0000AE13B6819789846042906D05346B96B33
:1050C000C818814201D9CB439A465346002B00D1E0
:1050D0008EE0B86BF96B302309949B464446B0468A
:1050E0005646C30500D08DE0CB05420A1A439446CC
:1050F0004B0A9A466389013B1A40089262461A425B
:1051000011D1084300D0ADE0B868002800D1EAE032
:10511000012800D18EE0431C00D1D0E0BB68386488
:10512000002B00D1B8605B46FB5C7F2B00D9B4E05C
:105130003A6CE36A023A023B9A4200D37AE065890C
:1051400000232800002108F099F9226D636D801872
:10515000594103000B436DD00023089A0793069230
:10516000069A079B12184B410492059380239B00DB
:105170009E4264D3089A730A9A4613005344AB4282
:1051800001D9AB1A9A465346607841460093049A77
:10519000059B04F0C3FF051E00D090E0BA6CFB6CC9
:1051A00004980599121A8B419D4200D1B0E05346F4
:1051B0005D024B46B86BF96B4A461B6802955B195A
:1051C000136000230393029A039B801859417B6963
:1051D000B863F9633A69761BA84499420FD80CD09A
:1051E0003A617B61002E00D07BE73023099CFA5C9A
:1051F00040231A433023FA5445E79042F0D9020085
:105200000B00EDE760229246BA448022DB0D92004B
:10521000D51AB54200D93500534418002A0041463A
:1052200008F080FA5B468022FB5C524213435A46E8
:10523000BB54BEE7312302220224FA5423E7602341
:10524000B86BF96B9A46049ABB6CBA4493423DD052
:105250007B698B424FD84BD0049A059BBA64FB64A0
:10526000C305D2E7FB6D002B35D004931D1D3B68B1
:1052700060465A895146002307F0E8FA049B5B68B0
:10528000002B05D1B1E70835C01A2B68002BACD034
:105290009842F8D26B68C01821E00121BA6CFB6C0F
:1052A000607800913900603104F038FF002806D1A1
:1052B0005B46FA5C7F2313405A46BB5438E73123E0
:1052C00001220124FA54DEE60724DCE6FB6C059A91
:1052D0009342BDD1C0E73800396CFDF74DFF00287F
:1052E00000D015E781E700213800FDF745FFF6E71C
:1052F0003B698342B0D90123607851460093049AF8
:10530000059B04F0E1FE0028D9D1B86BF96BA3E747
:10531000924500D84BE752024244110038008022E7
:105320006030920008F0FEF930227F23B95C0B4018
:10533000BB543CE7F0B5D6464F464646C0B50400E0
:1053400098B0002809D00368002B06D01A78002AEC
:1053500003D08188DA88914207D00925280018B047
:10536000E0BCBA46B146A846F0BD587804F080FECD
:1053700001210142F1D1402230261500A35D1D40DC
:105380001A42EBD05BB22768002B39DB04F034FF04
:105390003B780600042B42D0226D636D3800FBF78A
:1053A00011FB051EDAD12021A36DDA7A0A43DA72E5
:1053B000A268206891B2090A9A76D9760178032901
:1053C00000D197E022699E75110A1A775977110C5E
:1053D000120EDA77320ADA75320C1A760022360E9D
:1053E00099779A74DA745E76012338003B71FBF783
:1053F0006BFA30224021A35C05008B43A354ADE738
:105400007878A26CE36C00912100603104F086FE94
:10541000002874D17F23A25D1340A355B6E7E3793A
:10542000032B43D0236C9846E369002B15D04246EA
:10543000D21A511C012B64D00232012958D920689C
:10544000C36A994254D2FBF783FB051E00D085E75F
:10545000E369013BE361002BE9D18C20C00000F03F
:1054600009F911258146002800D177E780239B00A8
:105470004B443B6102AB984642462368A16A0293C3
:10548000236AF8609360636A4046D371FF229343B6
:1054900042461361002311655361D361FCF7B8FEE6
:1054A000051E31D0484600F0E9F857E7A368984652
:1054B000A369002B00D19DE042462068012A17D93C
:1054C0004344013B9946C36A434511D901234344F0
:1054D0001A0041469A46FBF73BFB051E00D03DE70C
:1054E000C14500D186E0D0462068C36A4345EDD867
:1054F000022533E7120C1A75120A5A7562E7012564
:105500002CE70122524298E74046FCF7F5FA051EC7
:10551000C8D120213A6913790B4313710122E37931
:105520003969134321228B543421A3683A69180A3C
:10553000535401315054180C0131505438201B0E73
:105540000131535421693B6962691954080A844640
:105550009246392062461A540A0C01301A54090E38
:105560000130195452463C21100A5A540131585402
:10557000100C013158542820120E01315A5421695F
:105580003B6962691954080A84469246292062469A
:105590001A540A0C01301A54090E0130195452469B
:1055A0002C21100A5A5401315854100C013158540E
:1055B000120E01315A543B69320A1E735A73320C6F
:1055C000360E9A73DE733B6940465D753B691D7408
:1055D0005D749D74DD74FCF793FF051E00D061E7D8
:1055E0003800FBF771F930224021A35C05008B43A2
:1055F000A35457E70023E37114E7C04670B50400D5
:10560000FFF798FE002800D070BD002C09D0236859
:10561000002B06D01A78002A03D0A188DA8891429C
:1056200001D00920F0E7587804F022FD01220300A0
:10563000100018401A42F4D1E36A013B0F2B12D834
:1056400080260B491B01CD18EA687600B2420CD0C7
:10565000002A03D0013AEA60002A01D10022CA5090
:1056600000232360D0E70220CEE7E860F6E7C046DB
:10567000086B002010B507F0D7FF10BD10B508F07B
:1056800033F810BD02007F2801D880B27047802314
:1056900000205B029A42F9D2B623FF339942F5D13A
:1056A0000023074904E001339BB20231802B05D06F
:1056B00008889042F7D1803398B2E7E70020E5E709
:1056C000C49201108023F0B55B02984217D2802368
:1056D00086B25B01984213D2244AFF270AE08E4229
:1056E0000CD35B8804321C0A3B405D18A84209DBDE
:1056F000002C0DD0118813000029F0D13000F0BD2E
:105700001B4AEAE7082CF9D81A4BA4001B599F46FC
:105710005B00D218EEE7503EB6B23000EFE7083635
:10572000B6B23000EBE71A3EB6B23000E7E7303EE3
:10573000B6B23000E3E7203EB6B23000DFE7103EFD
:10574000B6B23000DBE70123711A0B40F61AB6B28D
:105750003000D4E7411A49008E5A3000CFE7064B9B
:105760009C466644B6B23000C9E7C046D0900110EE
:1057700014900110F08F0110A0E3FFFF70B51E4DD3
:1057800004002B680A00984224D0AB68984228D0C5
:105790001A4B0B2C1BD00C2C11D119491960002A63
:1057A00010D0200005F06CFC0121200005F030FC39
:1057B0002B689C4217D0AB689C421AD070BD196808
:1057C000002AEED18022200005F084FCECE70D4990
:1057D0001960E4E70023DB00EB181B79002BEDD107
:1057E000D6E70123F7E70023DB00ED1801232B7137
:1057F000E4E70123F8E7C046C817002098770020A7
:10580000B50100206101002010B5403013F020FBED
:1058100010BDC04610B5403013F09AFA10BDC04616
:1058200010B5037A027E002B0BD00121D023C4686F
:105830001B06A1405B680B40591E8B4101698B42DE
:1058400004D102239A430276012010BD03231A4398
:105850000023027643765D21024A034804F0AEFC41
:105860000020F2E7C4930110E0930110002803D058
:10587000024B9C46604470470148FCE7B1020000BF
:1058800088B90110F8B5DE4657464E4645463A4BB4
:10589000E0B518009A4613F0DBFA384B1F789B46A8
:1058A000002F43D101239946354B002598460137F7
:1058B00005F0B4F8A84236D9280005F0B1F8041E66
:1058C0002CD00600036C4036002B48D0300013F07B
:1058D000BFFA4B462B48237642462B000421201862
:1058E00009F0BEFA237A002B0DD0237D002B07D0C0
:1058F000637DE068002B36D00022012105F006FB15
:10590000E06805F039FB2378012B19D0022B02D176
:10591000200002F065F8300013F01AFA013505F0A6
:105920007DF8A842C8D801235A461370504613F098
:105930000FFA3800F0BCBB46B246A946A046F8BDF7
:10594000200004F09DF96368186802F0A5F8431E72
:10595000984140420740200004F042F9DBE7300064
:1059600005F068FDB2E70122002105F0CFFAE068FA
:1059700005F002FBC7E7C046D864002052B10320FF
:10598000DC930110B1020000F8B59B229C23942502
:10599000CE46474604004068AD009B009200415946
:1059A0008258C31880B5806905F048FA912364686D
:1059B0009B00E058484FC6023E40A027FF05B8466E
:1059C000A32704336159A269E558444BBF00D3189B
:1059D0001B0DDB005B18DB033343414EE7593340BB
:1059E000EE0233433F4E7F021E43B44686014644D7
:1059F000B846A227BF00E759474437600F1DBF00D4
:105A0000B94691444F4677608027B7606746376153
:105A1000A826B600A61937687668BC46B046AA26FE
:105A20004746B600A75167460436A75101270436FA
:105A30007F42A751A0272C4EFF05BC463340AA2722
:105A40001926BF003343AE016644BC46A4446746F2
:105A500037604F4677600327B7603361E3690B2BEC
:105A600030D00C2B07D10123AB40A0251F4CED05F6
:105A70002B511F4C236083238C001419DB002361FE
:105A80004B005B18DB001B4DD318D8331D601F255E
:105A90002561194D1D60194D1D60194D1D601023A4
:105AA0005B42236111331D00A024854086208B407A
:105AB000E405C0002550106803431360C0BCB9461C
:105AC000B046F8BD0123AB40A0250E4CED052B518F
:105AD0000D4C2360CFE7C046FD7F00FF0000E0AF24
