:020000041000EA
:1000000000B5324B212058609868022188439860DF
:10001000D860186158612E4B002199600221596106
:100020000121F02299502B49196001219960352056
:1000300000F044F80222904214D00621196600F024
:1000400034F8196E01211966002018661A6600F04E
:100050002CF8196E196E196E052000F02FF8012189
:100060000842F9D1002199601B49196000215960AB
:100070001A491B48016001219960EB211966A021F2
:10008000196600F012F800219960164914480160C1
:100090000121996001BC002800D000471248134993
:1000A000086003C880F30888084703B5996A0420EC
:1000B0000142FBD001200142F8D103BD02B5186610
:1000C0001866FFF7F2FF186E186E02BD00000240BE
:1000D000000000180000070000035F00212200005C
:1000E000F4000018222000A00001001008ED00E03C
:1000F00000000000000000000000000074B24E7A12
:1001000000200420F7010010CB010010297A001014
:10011000C9010010C9010010C9010010C901001077
:10012000C9010010C9010010C9010010CF01001061
:10013000C9010010C9010010D1010010D301001045
:10014000C1010010C1010010C1010010C101001067
:10015000C1010010C1010010C1010010C101001057
:10016000C1010010C1010010C1010010C101001047
:10017000C1010010C1010010C1010010C101001037
:10018000C1010010C1010010C1010010C101001027
:10019000C1010010C1010010C1010010C101001017
:1001A000C1010010C1010010C1010010C101001007
:1001B000C1010010C1010010C1010010C1010010F7
:1001C000EFF30580103800BE00BE00BE00BE00BECA
:1001D00000BE00BEF2EB887120B8011040B80110DB
:1001E0003802001090A31AE71E481F49086006C88D
:1001F00081F3088810471D480068002801D019487D
:10020000F3E70DA40ECC002902D000F012F8F9E7B4
:100210001749184A002000E001C19142FCD116495B
:100220008847164988471649884700BEFDE701C937
:1002300001C29A42FBD3704740B801106001002010
:10024000485F00202816021000000420000004204F
:1002500028160210001004200010042000000000E6
:10026000704700000000000008ED00E0000000D032
:10027000485F0020AC0E022019C40010A902001033
:1002800011C40010F8B5C046044B10B5002B03D0C4
:100290000349044800E000BF10BDC0460000000054
:1002A000F86F0020BC6C011010B512F053FCFA215D
:1002B000062089000FF096F8062011F001FB10F0DF
:1002C00077FE10F0E9FE08F097F8FA20800009F0B8
:1002D00057F9064CFA20013C8000A4B20EF08EFFC4
:1002E00011F03CF9002CF5D1F3E7C046E60300001D
:1002F0000022F0B507680600BA563878002A02DBFB
:1003000001373760F0BD1F2201009143C0293BD067
:100310000F2201009143E02919D0072201009143E7
:10032000F02911D1032510403B003F217D1905E044
:1003300080010A40013310439D420BD05A789F1C24
:1003400014008C43802CF3D001204042DAE70225D0
:100350001040E9E703000E4A803B9342F4D8802224
:100360000C4B1201C3189342EED380235B029842D8
:10037000C7D3094B094AC3189B018005800D134060
:10038000034307481843BCE701251040CCE7C046AB
:100390007FFF10000028FFFF0000FFFF0000FF03A9
:1003A00000DC00D8F0B51A4F00263B00002206E022
:1003B0000568AC4215D001321033102A07D01C68F2
:1003C000002CF5D1013201261033102AF7D1002E6E
:1003D0001CD102394B4259411123484298431230F3
:1003E00011E05D688468A542E5D19D68046BA54273
:1003F000E1D1002908D11201BF18F8680138FF388F
:10040000434258410001F0BD1020FCE70020FAE70C
:10041000586300208C462149F0B50A000E000023E5
:10042000056803E001331032102B19D01468AC4278
:10043000F8D157688468A742F4D19768046BA74243
:10044000F0D160461C010A19D268012812D100209F
:10045000002A04D10132FF320919CA60581CF0BDCC
:1004600000233268002A07D001331036102BF8D150
:100470000020F4E70132EFE71C0186680D51056B9F
:100480000819C260466085606046013842425041AA
:10049000FF22404202400132DEE7C046586300209E
:1004A0000100006810B5002812D0020001E03A2BCC
:1004B00006D0137801321F2BF9D8094B187810BDDC
:1004C0000378303BDCB2092C02D80230824202D0E1
:1004D00001204042F3E71800032BF9DC0A60EEE745
:1004E0009A0E022070B504000D00002809D00368A0
:1004F000002B06D01A78002A03D08188DA8891422E
:1005000003D0092000232B6070BD587807F0C8FB8A
:1005100001220300100018401A42F2D12368F2E7CA
:10052000F0B54546DE4657464E4680466823E0B560
:1005300043448BB0039303790C00002B00D08BE075
:100540004346DB6AA21E023B9A425FD24346002129
:10055000588900230AF0A8FB43461C6D5D6D2418E2
:100560004D414346802200211C665D66920003983F
:100570000AF010FD434680215A89090253021E00E9
:100580008B4200D90E00802189000F008B4203D8D6
:1005900041E07608BE423CD9300003F0E5F88246DF
:1005A0000028F6D0320000210AF0F4FC730A9946C4
:1005B000434600225B899346002B05D115E0434654
:1005C0005B89CB449B4510D25B4604930023414694
:1005D000059348784946049A059B009112196B418E
:1005E000514607F09DFB0028E9D0504603F0C0F8C3
:1005F000434658895B46181A431E9841C0B20BB057
:10060000F0BCBB46B246A946A046F0BD002400257A
:10061000A7E743465A8900239B46013399460126A2
:1006200000270020002A09D1E4E701239C46434625
:100630005889E344A4197D418345DBD24346587869
:100640004B462200009303992B0007F069FB00281A
:10065000EBD043465889CDE70125026E436E0399DE
:100660004078009507F05CFB03000120002BC6D109
:1006700042461371536E126E0892099308980999B5
:1006800043461B6B06930023079343461A6C5B6C2F
:10069000801A994102000B0006980799994200D0F0
:1006A0004EE7904200D84BE74346DB78022B00D060
:1006B00046E706980799089A099B12184B4141464C
:1006C00048780399009507F02BFB39E73423C25C87
:1006D0000133C35C10B51B0213433622825C120443
:1006E0001A433723C35C1B06134339228B6038231C
:1006F000825CC35C12021A433A23C35C1B0413439B
:100700003B22825C12061A433C23C45C0133C35C67
:100710001B0223433E24045D24041C433F23C35C8B
:100720000A611B0623434B612123C25C1F3B13401C
:10073000CB710023CB6110BDF0B5CE46474680B5E6
:100740000379040085B0002B0FD12378032B3FD011
:1007500000220021607807F0F7FA431E9841C0B2EA
:1007600005B0C0BCB946B046F0BD68239846026EDD
:10077000436E01218044894640780091414607F04C
:10078000CFFA03000120002BEAD1266E676E206CA1
:10079000616C2371236B32000293002303933B00AF
:1007A000121A8B4110001900029A039B8B42CCD184
:1007B0008242CAD9E1780229C7D1029A039B4946ED
:1007C000607892197B410091414607F0A9FABCE795
:1007D0006579012DBCD12600802268360021920067
:1007E00030000AF0D7FB0F4B0F4A0120E2520F4BAB
:1007F0000F4AA36693239B00E250A1690433626908
:10080000E15000210433E250A26BE36B12184B411C
:100810006078226663663100009507F081FA002354
:10082000637195E76602000055AAFFFF52526141CD
:1008300072724161F0B5CE46474680B51500026E32
:100840001E000400436E87B0AA4207D10020B342C5
:1008500004D107B0C0BCB946B046F0BD27006178EE
:1008600068378C462179B946002910D101232A0026
:10087000009349463300604607F03EFA002803D053
:1008800001256D4201202E0025666666E1E7012103
:10089000604600918846390007F042FA03000120C3
:1008A000002BD6D12371226E636E049205930498B7
:1008B0000599236B02930023039363789C46226C73
:1008C000636C801A994102000B00029803999942C7
:1008D000CCD19042CAD9E378022BC7D102980399B0
:1008E000049A059B12184B414146604600914946C7
:1008F00007F016FA63789C46B8E7C046F0B54F4655
:100900004646D646C36AC0B5023B8F1E9F429B41F6
:100910001F40072306009146B8463C0000259A4632
:1009200082B0230B00930023019300980199B26DCC
:10093000F36D12184B413000FFF77CFF00283CD1CB
:100940005246012322409340802292009446F06A4E
:100950002105C90DDBB202387218683212780134F1
:100960001A40A04215D95B00DBB2002A17D101352D
:100970004D451FD0A74216D0002BEDD10131614566
:10098000CFD2012372186832127801341A40A04283
:10099000E9D88021002300248900002AE7D0A0465E
:1009A0000025A742E8D1002002B0E0BCBA46B1461B
:1009B000A846F0BD40460230F6E701204042F3E78A
:1009C000F0B557464E464546DE460239E0B51400BE
:1009D00005009846826DC36D0805C00D824607204C
:1009E0000E0B084001210027814092197B41CFB2B4
:1009F0000121A9468B46554683B00120002180186D
:100A00005941009001914846FFF714FF011E44D15F
:100A10004B46581968239C46844463461B781A0049
:100A20003A40561EB241904529D062467B40137031
:100A30004B465A46013C1A71002C31D080239B0052
:100A40008C469A46010007E07B4003705A464B46AD
:100A5000013C1A71002C14D07F00FFB2002F05D189
:100A600001350137554514D04B46591908003A0055
:100A7000683003781A40561EB2414245E4D1022341
:100A80009C46604603B0F0BCBB46B246A946A046B1
:100A9000F0BD0025009A019BAFE701239C46F0E7DB
:100AA0008C46EEE7F0B54F464646D646C0B50778C9
:100AB00004000D001600022F5DD034D8012F58D14C
:100AC0004B0898468844414600234A0A416C006C12
:100AD00012184B412000FFF7ADFE00281ED16823FD
:100AE0009946673B43449A4643465246DB05A14438
:100AF000DB0D00214B44500A2F4256D00F251A78A7
:100B0000154032012A431A70226C636C2771121847
:100B10004B412000FFF78EFE00285FD0E0BCBA46B4
:100B2000B146A846F0BD033F012F22D80023CA09D1
:100B3000416C006C12184B412000FFF77BFE00282F
:100B4000ECD1FE23AD005B001D402300227868330A
:100B50005B19042A05D0DA78360112093609120722
:100B60001643320A1E705A70320C360E9A70DE70BE
:100B700017E00220D2E700230A0A416C006C121829
:100B80004B412000FFF756FE0028C7D1FF236A0023
:100B90005B001A40230068339B18B2B2120A1E7021
:100BA0005A70012300202371B8E71E70226C636C19
:100BB000277112184B412000FFF73CFE0028ADD1F1
:100BC000534649464A46DB05DB0DD218CB5C0F2164
:100BD000360A8B4331400B431370E2E75346DA0584
:100BE000D20D33094A44DBB21370DAE7C36970B53A
:100BF00004000E001500002B0DD116E02068C36A1A
:100C0000994210D2FFF74EFF00280DD1E369013B56
:100C1000E361002B09D0F01A2A00411C012B00D0FF
:100C2000821C0129EAD8022070BD0020FCE7C046E2
:100C3000F8B5C3790500032B01D00020F8BD876902
:100C40008468002F15D00068012C10D9E719013FE6
:100C50000AE0661C32002100FFF724FF0028EDD1D6
:100C6000BC4206D034002868C36A9C42F1D30220FB
:100C7000E4E70023EB71E0E7F0B5C6460D00012480
:100C800000B5012920D90668F36A8B421CD9337854
:100C9000032B5ED01CD8012B4BD0022B14D1002388
:100CA0000A0A306C716C12184B413000FFF7C2FD1C
:100CB00000284BD1FF226B0052001340F318683319
:100CC0005C781A7824021443200080BCB846F0BD3A
:100CD000042BF9D1026943691700C1791F435AD126
:100CE00001240029F0D1C369002B00D08BE0306CC7
:100CF000716C0023EA0912184B413000FFF79AFD8E
:100D0000002823D1FE2369225B00AD001D40761927
:100D1000953BB25CFF3BF35C12021A436A23F35C1F
:100D20001B0413436B22B45C24061C436400640858
:100D3000CAE700234F087F187A0A306C716C1218CA
:100D40004B413000FFF776FD00283DD0012464427E
:100D5000BAE70023CA09306C716C12184B4130009D
:100D6000FFF768FD0028F1D1FE2269215200AB0097
:100D70001340F318953A595CFF3A9A5C0902114303
:100D80006A229A5C12040A436B215C5C24061443B9
:100D90002401240998E78768002FA1D0EF1B0229BE
:100DA00033D101204042C11780185941CB05400A78
:100DB000184372890023490A09F078F9874200D95B
:100DC00082E720D06C1C7FE77B1C9846FB05DB0D7F
:100DD000F318414668331F7800234A0A306C716C5F
:100DE00012184B413000FFF725FD0028AED14346D5
:100DF000DB05DB0DF31868331B781B023B432C42E9
:100E00000CD01C0960E7074C5EE7032900D06AE7B5
:100E10008369BB4200D866E76C1C55E71B051C0DB7
:100E200052E7C046FFFFFF7FF0B5C6460500884683
:100E300000B5066800294FD17769B269002F22D129
:100E4000002A44D03378042B00D195E00127F36ABF
:100E50003C0007E0012814D0013000D189E0BC42F9
:100E600035D0F36A0134A34202D8012F2FD00224D7
:100E700021002800FFF700FF0028EBD1012C00D94A
:100E800084E0012424E0F36ABB42D9D9002A1ED0B1
:100E90003278042ADCD1012239003000FFF72EFD20
:100EA000431E0400033313D8010001230122300044
:100EB000FFF786FD0228E4D001285AD04346002BD4
:100EC00066D10233EB71002836D0012400E0002403
:100ED000200080BCB846F0BDFFF7CEFE040001281C
:100EE000CFD9431C45D0F36A8342F1D8B269002AB6
:100EF000EDD032784746042ACDD07C1CA34200D8DE
:100F0000022421002800FFF7B7FE0128B9D0431CB6
:100F10002FD0F36A1A00002830D1002C34D0A2421E
:100F2000AFD90122210030005242FFF7BBFD00285B
:100F30001CD14346002B0CD1F36AB269023B7461A9
:100F40009A4201D8013AB261012273791343737155
:100F5000BEE7012B95D0F36A984500D391E72200B4
:100F600041463000FFF79EFD0028E5D0012800D063
:100F700087E701246442ABE701278CE77769012FFB
:100F800002D99F4200D263E7474661E7F26AC6E7AB
:100F9000EB79022B1BD042460132EB69A2420DD005
:100FA000002B01D10133EB61220041462800FFF7FD
:100FB0001DFE0028DAD10123EB61BDE70222002BE0
:100FC00000D05A1CEA610028B6D0012480E77B1CBF
:100FD000A34200D177E7AB68FB1AAB610323EB7147
:100FE000D9E7C046F0B506680D003278C646131F33
:100FF00059424B41FE215B4209050B408021890388
:101000008C466344070000B5AB4222D9EB0620D1E1
:1010100084680563002C20D073895B0298469D424A
:1010200009D23BE0012814D9F36A834211D9424620
:10103000AD1AA84533D821003800FFF71DFE040083
:10104000431CEFD1012005E000220023BA63FB63BB
:101050007C63022080BCB846F0BD022A18D83289D1
:101060006B099342F5D2B26CF36C1100BA63FB6367
:101070007C631943EDD00021680A80185941ED05C1
:101080006836ED0D7619B863F9633E640020E1E738
:10109000B36CC471002BE2D01C00BDE7F36AA21E42
:1010A000023B9A42D0D200230021708909F0FCFD56
:1010B000326D736D12184B41D7E7C046F0B54F46FD
:1010C000D64646460C00C0B5914607000568012982
:1010D0004CD9EB6A8B4249D9002A41D10123A04661
:1010E0009A4602E0A0469C4235D221003800FFF724
:1010F000C3FD2600041E2ED0012837D0431C66D025
:101100002A78EB6A042A09D09E422FD200223100AD
:101110002800FFF7C7FC002829D1EB6AAA69991EAD
:101120008A4205D251460132AA616A790A436A713C
:101130000136A642D7D02A78042AD3D14346414665
:10114000F21A28000023FFF73BFC00280FD1EB6ABE
:10115000A0469C42C9D32B78042B1FD0002006E068
:101160002A78042A13D04A46012A05D10220E0BC7D
:10117000BA46B146A846F0BD4B45F7D901224946CB
:1011800028005242FFF78EFC0028A7D0EFE7C27973
:10119000022AA3D04A46012AEED1E7E74B46002BAC
:1011A00012D0FB79002B14D1BC680AE02100380072
:1011B000FFF762FD0128D9D9431C08D001348442CD
:1011C000CCD14C45F2D102230020FB71CFE70120A6
:1011D000CDE7032BC2D1BB684B45BFD8BA699B187A
:1011E0004B45BBD30223EFE7F8B506684746337893
:1011F000CE46043B5A1E93413E4A5B421340802236
:1012000052059446056B634420350400884680B53A
:10121000AB4208D800220023A263E3630420C0BCD1
:10122000B946B046F8BD826BC36B11001943F5D0C7
:10123000E905CF0D002943D10021012012184B41AF
:10124000616BA263E363002940D073896A0A013BA2
:101250001A4235D12000FFF70FFD81460300012817
:1012600040D901333CD0F36A834218D84346002B5F
:10127000D0D02000616BFFF7D7FD8146031E36D02A
:1012800001282FD001332BD001003000FFF748F99F
:10129000002825D10422E3791343E371F36A4A4617
:1012A000023B6263023A9A421ED2002300217089F7
:1012B00009F0FAFC326D736D80185941A063E16347
:1012C0006836F619002025632664A8E732896B0981
:1012D00093429FD26836F6190020256326649EE764
:1012E00001209CE702209AE700200021E6E7072082
:1012F00095E7C046000020F0F8B50E00002104007C
:101300000568FFF76FFE002819D10027A26BE36B79
:101310002800FFF78FFA002811D1236C2A781B7858
:10132000042A0FD0E52B01D0002B0ED10137B74294
:1013300007D001212000FFF757FF0028E6D004283E
:1013400005D0F8BD5BB2002BF0DA0027F1E70330DF
:10135000F7E7C046F8B504000068A26BE36B0669C6
:10136000FFF768FA002804D1216C0B78852B01D097
:101370000220F8BD2022300009F012FE757880238B
:1013800001356D012A00603A9B009A42F0D8002195
:101390002000FFF729FF0428EAD00028E9D1A26B3A
:1013A000E36B2068FFF746FA0028E2D1216C0B7846
:1013B000C02BDDD130002022203009F0F1FD2323A5
:1013C000F05C0F212C3008F033FE4001A842CFD84A
:1013D000402713E00028CCD1A26BE36B2068FFF715
:1013E00029FA0028C5D1216C0B78C12BC0D1F01986
:1013F0002022203709F0D4FDBD4206D9002120006B
:10140000FFF7F2FE0428E5D1B2E70021002370784F
:1014100001304001022B00D10233F25C4C08C903B9
:1014200052181219013391B29842F3D8F078B37878
:1014300000021843401A431E9841400099E7C046F5
:10144000F0B5C64604000022002100B503681D69FE
:101450006E7801367701022900D102316B5C5008A9
:10146000D2039B181B1801319AB2B942F3D3AA7068
:10147000120AEA702000216DFFF7B4FD00281AD18E
:10148000012710E020222900206C09F089FD236843
:10149000013E1F71002E13D0002120002035FFF7E0
:1014A000A3FE002807D1A26BE36B2068FFF7C2F907
:1014B00080460028E6D0031C022805D8DBB29846F7
:1014C000404680BCB846F0BD0223F7E7FF23F0B5E5
:1014D0004E46DE46454657469946DF3BE0B504009A
:1014E0000568FF2604209B4683B0A26BE36B1100C6
:1014F000194300D17DE02800FFF79CF900281BD19B
:10150000236C1A78002A00D175E0297804295DD06F
:101510003F20D97A0140A171E52A06D02E2A04D0B5
:1015200008005F46B843082811D1FF26002120009B
:10153000FFF75AFE0028D8D000220023A263E363FD
:1015400003B0F0BCBB46B246A946A046F0BD0F2989
:1015500066D13131114249D0587B8A438146160009
:10156000226B22655A7B4A45DFD1DA7E997E1202D0
:101570000A43DAD14021EA68019617001A788A43B3
:10158000013A50008018800080180D2290460C3AD5
:1015900094462D4A2D49924622008844644694463A
:1015A00008E0FF2810D84400E25314000130013154
:1015B000414522D00A789E5C9A1852781202324332
:1015C000002CEED15245F2D06446AEE7852AADD16B
:1015D000236B20002365FFF7BDFE0028ACD12B69EB
:1015E0001A793F231340A3710020A9E7B2429CD18E
:1015F000B8E70028F8D004209EE762461B78A4468E
:10160000019E14005B0608D56346002B05D0FF2819
:1016100000D98AE700234000C353013EF6B285E7B4
:10162000002E0CD118000B3019787208F6013243E5
:1016300052180133D6B28342F6D14E45D4D001239D
:101640005B42002023657BE7FFFF00006C6D01100B
:10165000F0B5DE46454657464E46E0B5046887B0CD
:10166000002101900094FFF7BDFC051E42D12378B4
:10167000042B00D1BBE00123019C5B429B46236508
:101680000133FF339946FF263F2780460BE00F29A1
:1016900038D05B46FF26236500212000FFF7A4FD1C
:1016A000002800D089E0A26BE36B0098FFF7C2F836
:1016B000002800D081E0256C2B78002B00D194E02D
:1016C0003900EA7A1140A171E52BE2D01207DED48D
:1016D0000F2917D0002E00D175E04F23E35CDB0704
:1016E000D7D421000B222800443112F033F800280F
:1016F000CFD14546280007B0F0BCBB46B246A9464C
:10170000A046F0BD4F214022615C0A42C4D11A427A
:1017100055D0697B93438946226B22656A7BFF26FD
:101720004A45B9D1EA7EA97E12020A433DD1009A08
:101730002978D268059301923F220A40013A51006C
:10174000891889008A18664943460E004946A8460A
:101750000120150002910393049415E0FF2D1FD87A
:10176000200002F029F86B1C9A46019B6D0081460F
:10177000E85A02F021F8814512D120005546594B14
:1017800001369E4200D193E042463378D25C434416
:101790005C78240214430028E0D1534B9C42EED0E5
:1017A000029B049C9946039B9846FF26002120003B
:1017B000FFF71AFD002800D175E705009AE79E4261
:1017C000ACD0FF26F2E729002A0033000B315E0877
:1017D000DB011E4313780132F318DBB28A42F6D1E3
:1017E000994500D079E7454684E7042582E7009BC8
:1017F000DB6818889E1C00239946002816D0FF2716
:101800001C0001F0D9FFE30382B2640838402418B9
:101810001B199BB2DC03120A5B089B180236E41802
:10182000B31E1888A4B20028EBD1A146009B242443
:101830009A46AB460198FFF749FE0028BDD15346B2
:1018400025221B699A5C195D12020A434A45F1D1AF
:1018500023229F5C002F41D000224026904601E0C9
:1018600053461B691F22324200D102369A5D9B19F2
:1018700058780002104301F09FFF53464246DB6850
:1018800052000500D05A01F097FF8542D2D10123C2
:101890009C46013FFFB20236E044002FE0D14346B0
:1018A0005B005246D268D35A002BC3D15D4621E774
:1018B00029004546039A029B90462A789946049C43
:1018C000059B520607D5002805D04A000199525AB7
:1018D000002A00D069E7013BDEB2DDE60023E0E745
:1018E0006C6D0110796D0110FFFF0000F0B5DE4650
:1018F000454657464E46E0B50D0001682B789FB02F
:10190000834604912F2B41D05C2B3FD00023CA6922
:1019100009788260C361042941D1002A3FD0594629
:101920005E46049C206A626A08624A62A16A089460
:10193000B1620A90FF2008AEF2718243326130003A
:101940007361F3613165FFF74DFB00285AD1300018
:10195000FFF700FD002855D13822049B1B69995CD4
:1019600001329A5C12020A433A21595C090411437C
:101970003B229A5C12060A4359460A6121224861B9
:101980009A5C02231340CB7109E001352B782F2B91
:10199000FBD05C2BF9D000235A469360D3612B789F
:1019A00008AA1F2B00D873E1802317005B02994619
:1019B000BC4B01935B461B680024DE6808951BE066
:1019C000484503D36300020C9A53013485B21F2D9E
:1019D00000D859E12F2D1CD05C2D1AD07F2D06D8B0
:1019E0000004010C019812F087FB002809D1FE2C9D
:1019F00007D863009D5301343800FEF779FC431C7F
:101A0000DED106201FB0F0BCBB46B246A946A046B8
:101A1000F0BD089D01E0013508952B782F2BFAD0F9
:101A20005C2BF8D000221F219942524193009A4624
:101A3000012C14D0022C00D044E173882E2B0ED040
:101A4000994BE3185B00F3181A88202A01D02E2A3C
:101A500035D1013C023B002CF6D13480D1E73388EC
:101A60002E2BEDD1002258460E2163009A534430AC
:101A7000A2429B410B402033835401320B2AF7D101
:101A8000524620231A4392465B464F2452465846FC
:101A90001A55FFF7DDFD5B461B5D002800D18EE087
:101AA0000428AFD102001A409B0600D46EE1002A40
:101AB00000D17FE780235A4613550020A2E7630038
:101AC0009C4600236246B35230880021A046B31CD6
:101AD000202800D0D1E01A000233981E00880C00A4
:101AE00001312028F7D02300444690460233079363
:101AF000524603231A4392466246023AB21803E062
:101B0000013C023A002C02D013882E2BF8D1584603
:101B10000B222021443009F03DFA43461B889846A9
:101B2000002B00D129E10023039308330293002303
:101B300006965646AA4625004446B846079F059392
:101B4000202C5FD02E2C68D0029B059A93427AD825
:101B5000029B0B2B66D0AF4200D1A9E003231E43AA
:101B6000AF4200D8A4E044235A46D25C55464746CB
:101B7000B246E52A02D15946E03ACA54029B082BE4
:101B800000D1A4E00C23039A13400C2B70D0039BCC
:101B9000DB439B076CD053469B0700D574E7039B40
:101BA000DB0703D5524610231A439246039B5B077B
:101BB00000D469E7524608231A43924664E75B075C
:101BC00000D57AE75B469B79DB0600D4E1E0049B15
:101BD00019785B46042900D193E01A6B049BD20567
:101BE000D20D68339B18DA7E987E120202430329D5
:101BF00005D1197D5B7D1B020B431B041A435B4619
:101C00009A60D7E603231E433B00F6B2069A5F1C98
:101C10005B009C5A002C93D1A5E7AF42F2D1029B06
:101C20000B2B9DD144235A46D25C55464746B246BB
:101C3000E52A00D1AFE0032352461A439246039AA5
:101C400009331340A1E7AF42E9D07F2C46D82100E9
:101C5000164812F051FA002876D003235F241E4361
:101C6000059B5A1C5B4444331C7005923B00CDE736
:101C7000524602231A43924606E70123B0460793D1
:101C80002E2800D038E733E70423089D9A46CFE694
:101C900059464F2380225846CA540021FFF7A2F923
:101CA000B0E6C046C06C0110FFFFFF7FCC6C011096
:101CB0000B22039B02929B00DBB2033A0393059233
:101CC0002B00A3E7002C00D0BAE6348099E6039BF2
:101CD0009B00DAB203920C22134056E70223B6218E
:101CE00020003343FF31079301F046FD0400030653
:101CF0001AD57F232D4A0340D45C079E002CACD01C
:101D0000A5E75A469B68594613621369FF2293431D
:101D10005A46D27913435A465362136D9362049B19
:101D20001869FEF7D3FC45E6FF28E6D9029B059A21
:101D3000013B934233D9059A010A531C5A44443259
:101D4000079E1170C4B28CE72300413B9BB2192B54
:101D50000CD92300613B9BB2192B04D80123039AB1
:101D6000203C1A430392059BE4B27AE70223039ACC
:101D7000E4B21A430392059B73E7524602331A40BA
:101D800003925246134200D110E77DE6002A00D0AC
:101D900038E6052036E605225946CA544BE70323A8
:101DA000029A1E4305923B0030E7C046EC6C0110DE
:101DB00070B5150000221E00027101225242D31795
:101DC00004000266436682B06B1C51D1731C4FD174
:101DD000544A544BA2185578E35C2D021D43524BD4
:101DE0009D4233D06823E35CEB2B06D01833DBB283
:101DF000012B02D9032002B070BD7323E25C2300E3
:101E000073335B7803201B0213435A1E1342F2D133
:101E1000802292009342EED17523E35C002BEAD03E
:101E20005A1E1342E7D17623E25C230076335B78B7
:101E30001B02134304D07823E35C013B012B46D9FA
:101E40003A4BE818431E98410230D4E720000B2299
:101E50003749683011F07EFC00281BD06823E35C12
:101E6000EB2B19D01833DBB2012B15D90220C2E7B6
:101E70000123210060782A0000936831330005F0C7
:101E80003BFF002820D001225242D31704202266B3
:101E90006366B0E70120AEE7200008222549BA308A
:101EA00011F058FC00283AD07323E25C230073330E
:101EB0005B781B0213435A1E1342D7D180220220A3
:101EC0009200934297D1A7E72566666680E779235B
:101ED000E25C230079335B781B021343B0D07B2391
:101EE000E25C23007B335B781B0213437F2B0FD80C
:101EF0008823E118E25C4B781B0213438A781204B2
:101F00001A43CB781B06134380225202934297D385
:101F10007E23E25CE41863781B02134390D0002018
:101F200069E7C0466602000055AA0000AB55FFFFF6
:101F3000D46C0110E06C0110F0B54E464546DE460B
:101F400057460023E0B50B608FB00E001500FEF77A
:101F5000A7FA002800DA12E1BD4B8000C458002C1B
:101F600000D158E13460012623786078B543002B16
:101F70000BD005F095FE064206D1002D02D0400799
:101F800000D5F6E00020EDE060780023237005F036
:101F900093FEC30700D5E4E0002D02D0400700D532
:101FA000E7E0002200232000FFF702FF022800D113
:101FB000E7E0042800D1E0E0012800D937E1226EF3
:101FC000636E00920193012800D126E17323E15C46
:101FD0002300802273335B7892001B020B439342F1
:101FE00000D024E122007E237E325578E35C2D026E
:101FF0001D4300D11DE178232563E75C7B1EE7705C
:10200000012B00D913E17523E35C98466381002B13
:1020100000D10CE14246013B1A4200D007E179238E
:10202000E25C230079335B781B02134399462381DA
:102030001B0700D0FBE022007B237B325678E35C59
:1020400036021E430CD12100882388314A78E35C94
:1020500012021A438B78CE781B04134336061E43B4
:102060007623E25C230076335B781B0213439A46A7
:1020700000D1DCE03A004B466A431B0953449B46BF
:102080009446E34402925E4500D2D0E05B46F61AE5
:102090004146300007F0CCFF464500D2C7E06D4B0B
:1020A000984200D9C3E05346049300230593049E4D
:1020B000059F009A019B92197B41009E019F069209
:1020C00007935A46002392197B41634E811CB0420C
:1020D00000D996E2614EB04200D961E3009E019FB3
:1020E000226563654B46A663E763069E079FE16230
:1020F00026646764002B00D199E0069E079F0023A9
:10210000029A480092197B4101264018400831404C
:1021100041180120A264E364514B9C466144490A82
:102120008D4200D283E001235B42A361636181336E
:102130006371C0B24B4A20701388002001339BB2F8
:102140001380E3800023E361474B591CFF3103E018
:1021500010338B4200D115E71A689442F8D1186009
:10216000F6E703200FB0F0BCBB46B246A946A04636
:10217000F0BD0A20F6E7042859D10120F2E70B2030
:10218000F0E73A4BE35CEE2B00D154E1384B0AAD5B
:10219000E118E25C4B780EAE1B0213438A781204FE
:1021A0001A43CB781B0613430A93324BE118E25CC7
:1021B0004B781B0213438A7812041A43CB781B0610
:1021C00013430B932C4BE118E25C4B781B02134337
:1021D0008A7812041A43CB781B0613430C93274BBF
:1021E000E118E25C4B781B0213438A7812041A430D
:1021F000CB781B0613430D9302E00435AE42BAD0F0
:102200002A680320002AF8D000232000FFF7D0FD21
:102210000128F2D8D3E60C20A4E725000B2368356B
:1022200002E00133402B2BD0EA5C002AF9D00D20CC
:1022300098E721008C238C314A78E35C12021A4320
:102240008B78CD781B0413432D061D43D3E6C0467F
:1022500048630020F5FFFF0FF5FF0000F50F0000B9
:10226000FF010000960E0220586300202A020000A1
:102270002E0200003E0200004E0200005E0200003E
:10228000D023E15C23008022D0335B7852001B0214
:102290000B439342CBD1D423E35C092BC7D123005A
:1022A000B03359781A78090211439A7812040A4314
:1022B000D97809061143029159791A790902114313
:1022C0009A79DB7912040A431B0613432100039316
:1022D000BC23BC31E25C4B781B0213438A781204A6
:1022E0001A43CB781B0613432363D623E35CE370C6
:1022F000012B9CD1D522A25C93409AB26281002A24
:1023000095D0C422A15C2200C43250780002084358
:102310009178D2780904014312060A43D8498A42C7
:1023200085D8911CE16200980199A063E163C02106
:10233000665C2100C03108004978C7780902314342
:1023400086783F0636040E4337433800009E019FCF
:10235000002136184F413000390020656165069034
:102360000791B821615C20008C466746B8304178FF
:102370001B040902394387781B0C3F040F43C178C3
:102380005A4309060F433800009E019F002180191F
:102390007941206461641000069A079B002180182F
:1023A0005941029A039B92197B41994200D93EE719
:1023B00000D10DE22100C823C831E25C4B78002631
:1023C0001B0213438A78002712041A43CB781B069A
:1023D0001343A3640023E3641EE00023002108F0FC
:1023E00063FC226D636D12184B4100210497059127
:1023F0000498059912184B412000FEF71BFA00289B
:1024000000D0BAE60137A31968331B78812B00D1BD
:1024100082E12036F605F60D002EF4D16089B8422F
:1024200000D804E7A26CE36A023A023B9A42D4D392
:1024300000220023D9E7012200232000FEF7FAF949
:10244000002800D099E6250068350C2228008D4927
:1024500011F080F9002800D0E9E67423E25C013332
:10246000E35C1B0213437622A25C12041A43772317
:10247000E35C1B0613431900D2225C3952009142DF
:1024800000D9D4E6B53AFF3A91469944130088330F
:102490009A467D4B9446984622002B0001214D46DA
:1024A000A24401276446994694464942032C00D829
:1024B000A5E05346185D08260122A34603001340F9
:1024C0005C1EA3414B4059081F4201D0434659406E
:1024D0005200013ED2B2002EF0D15C460134AC4233
:1024E000E4D164467823E25C0133E35CC9431B0218
:1024F00013437A22A25C4D4612041A437B23E35C09
:102500001B061343994200D091E62100BC23BC3145
:10251000E25C4B781B0213438A7812041A43CB788F
:102520001B061343802B00D081E604394A783833E8
:10253000E35C12021A438B78C8781B04134300062D
:102540001843802800D972E62300B03359781A78EE
:10255000090211439A7812040A43D97809061143F3
:10256000029159791A79090211439A79DB79120497
:102570000A431B0613430393002800D157E6C30107
:102580009846C0235B009A46404BAB469946009460
:1025900003E08036B04500D149E6029A039B00254E
:1025A000740A12196B410098FEF744F9002800D014
:1025B000E3E5574637405F4410224946380011F0A2
:1025C000C9F80028E5D120377A783B7812021A43FF
:1025D000BB7839791B041343FA78009812061A4322
:1025E0007B791B020B43B97909041943FB791B065C
:1025F0000B43FFF7DDFB0128CBD8009CDFE4002074
:1026000059E722656365009E019F9223A663E763F5
:10261000069E079F26646764E162E25C23009233B2
:102620005B781B0213434A461A4300D0FFE52000A3
:1026300094239430E25C43781B02134382781204A3
:102640001A43C3781B061343114AA3649446059B9F
:10265000E3648B0063445B0A9D4200D2E7E50123FB
:102660005B42A3616361813363711833E25C2300D1
:1026700098335B781B021343012B0BD0032059E5E1
:10268000FDFFFF7F8C6D01102083B8ED7C6D011084
:10269000FF01000001220098019900238018594190
:1026A00002000B002000FEF7C5F80028E6D14D4BD4
:1026B0006071E25CE3185B781B0213434A4A934261
:1026C000DCD16823E25C0133E35C1B0213436A2222
:1026D000A25C12041A436B23E35C1B061343434AB8
:1026E0009342CBD193239B00E118E25C4B781B0211
:1026F00013438A7812041A43CB781B0613433C4ACF
:102700009342BBD1942395229B009200E358A25898
:1027100003206261A3610DE5AE19727D337D120263
:102720001A43B37DF67D1B04134336061E43012E68
:1027300000D87CE5E36AB34200D878E56089B11E31
:10274000414300230A00206D616D12184B417F2721
:10275000A046A946A265E36514E03B004A46334023
:102760009B00D25C4B445978090211439A78DB787C
:1027700012040A431B0613435A1C2ED001369E42F4
:1027800000D054E500254346F4091A6C5B6C4046C2
:1027900012196B41FEF74EF80028DED00120E1E46B
:1027A00022656365009E019F4B46A663E763069E14
:1027B000079FE16226646764002B00D137E5069E1F
:1027C000079F0023029A022092197B414900A1E44D
:1027D000904200D8EEE50D20C4E444460420A361F5
:1027E0006361A7E46602000055AA000052526141ED
:1027F00072724161F0B5DE4657464E4645464F235C
:10280000E0B59FB00090C35C5F221900914300D0F7
:1028100051E10268D76893463A880397002A00D1AD
:102820006AE1002201325100795A0029FAD1039756
:1028300059460D78042D00D13FE1009D08A944358B
:1028400028000291D0C8D0C1D90774D54F214020AB
:10285000009C4C2660544E3989462100A446C84647
:1028600089466644A54C03980493059203962B0071
:10287000029A42CA42C31188198092789A704346DC
:10288000052B17D90288002A14D0802701267F0241
:1028900002301021844630005B001040C3185208FB
:1028A0003B4200D0634001390029F4D160460288E0
:1028B000002AEDD10F2107228C4602E00F2E00D80E
:1028C000E4E060461840010030311E001B09392940
:1028D00000D90731013A06AF1000BA4650444170A2
:1028E000002AEBD17E2306A90B7000234433039802
:1028F0004B442021072A02D806A9895C01321970AD
:1029000001339842F5D14846FEF7A2FE011E09D1D7
:1029100001239C46E0444346642B00D1F5E15B462D
:10292000D868A4E70700049B059A042800D0A5E016
:1029300000984B3143549B0700D4B5E00C320D2175
:102940001000140007F074FB0390411C0098FEF780
:10295000D3FC071E00D091E00C2C73D0009C039B8D
:10296000216B5B012000C91AFEF73CFB071E00D05B
:1029700084E021002A004F3110787B08FF013B439F
:102980001B180132DFB29142F6D15D4B5C4699468D
:10299000BB46A846009D2000AA6BEB6BFDF74AFFE3
:1029A000031E00D0A6E003992E6CCAB294465A4684
:1029B000E06872730F223373B376F376FF330B4004
:1029C000013BF2725A00D2184E499200D5180F00FE
:1029D000FF2300229A460C370494FE3B0EE06C1C49
:1029E0006D002A5AF318150A5D701A702500002A26
:1029F00000D1434A8F4209D00B7801314A45EED1CC
:102A00005446F3181C705C708F42F5D1049C4A4503
:102A100003D06B001B5A002B03D1624640231A439C
:102A20009446634633700123002100982371FEF71A
:102A3000DBFB00285ED1039B013B0393002BA9D154
:102A4000A3464546009B58469A6BDB6BFDF7F2FEAA
:102A5000071E13D1009C20220021206C08F09AFA56
:102A60000B222900206C08F09BFA4F23E15C226CBA
:102A7000373B0B40137301235A46137138001FB0C4
:102A8000F0BCBB46B246A946A046F0BD7E2306A9CF
:102A90008B540021685C0B000131202800D125E710
:102AA0008A42F7D1130021E701210098FEF724FCA8
:102AB000071EC7D0E2E70627E0E70E3210000F211D
:102AC00007F0B6FA009E811C04003000FEF714FCEB
:102AD000071ED3D1336B013464011B1B3365F379BB
:102AE0001D4200D185E0AB433000F371FEF7A0F842
:102AF000002809D00700C1E7002299E62110010053
:102B0000FFFF00006D6D011001223000716B524219
:102B1000FEF76CF80028EDD1B368002B69D008AB44
:102B200098464146FF22336840460893336A4F6116
:102B30008B60736ACF61CB71934342460B61B16A7C
:102B40001165FEF74FFA0028D4D14046FEF702FC8B
:102B50000028CFD15B4600255B8900995C020A6999
:102B60004B6912196B410A614B61009201935B46FC
:102B70000D0019693830009A019B0A543920140A53
:102B80000C543A20140C0C54100E3B228854013281
:102B90008B543D22180A88543E22180C88541A0E71
:102BA0003F23CA545B46282029691B696A690C0ABD
:102BB000195401301C540C0C01301C54090E013006
:102BC00019542C21100A5A5401315854100C013157
:102BD0005854120E01315A545B4601221969EB799F
:102BE0004046134321228B54FEF72AFC002800D0D4
:102BF00080E75B461C693F22661C00213000DD68CF
:102C000008F0C8F98523C0222370653BE2540023F5
:102C1000C1219C468B46A239894661460020B446B4
:102C200026000C00BF3A9A46039240335A46F254AB
:102C30000022591C72545146B046BA462E00039ADF
:102C4000050002330491009413E022880021100A49
:102C5000002A06D0009FD1B20137FCB26500009473
:102C600074194746F9546146C8544946023319421B
:102C70000CD07419002AE8D1002147460020F954ED
:102C80006146C854494602331942F2D12800350042
:102C90004646A0460392049A5746511C9246424625
:102CA0001288009C9046C9B2002A01D08A46BDE72E
:102CB000A44623236246F254534602337370288895
:102CC0003400AB1C002822D01D00FF2600F074FD4C
:102CD0004246434681B2520830401218DB039B182B
:102CE0009BB2DA03090A5B085B18D3189BB2023562
:102CF0009846AB1E18880028E8D14346DAB21B0A72
:102D0000242162542522A354B8E60727B6E60023FF
:102D10000022F5E7F0B585B0019003A816000091F8
:102D20000391FDF7BDFB00282BDB174F8200BC5839
:102D3000002C14D000230021BB50144B8C465D1C8A
:102D4000FF3502E01033AB4207D019688C42F9D14D
:102D5000614619601033AB42F7D100232370019B09
:102D6000002B03D0002158701970BB500020002E9A
:102D700001D105B0F0BD0022684601A9FFF7DCF8DB
:102D8000F7E70B20F5E7C0464863002058630020B2
:102D9000F0B54E46DE4657464546E0B59FB00400C6
:102DA0001600059100285AD03F2717403A0007A97E
:102DB00005A8FFF7C1F8051E09D0002323602800ED
:102DC0001FB0F0BCBB46B246A946A046F0BD8C2061
:102DD000079BC0009846089300F0C6FC8146002877
:102DE0003FD04346D860802342469B004B4413614A
:102DF000059908A8FEF77AFD1C23334082469B46BE
:102E0000002821D118214F2302AA5218D35C7F2B0E
:102E100041D83E2333405A1E934108A8190002931B
:102E2000FDF7C0FA5B468246002B1CD000280ED16D
:102E3000112202AB9B7F1A4259D173074DD54846E8
:102E400000F096FC0825B8E75B46002B02D05346FD
:102E5000042B13D0484600F08BFC5546ADE70925FE
:102E6000ADE71125ABE70028F4D102AB9B7FDA0672
:102E700017D5484600F07CFC04259EE70022D54B80
:102E80001968002900D1B0E001321033102AF7D1BF
:102E900012239A46DEE75B46002B2DD106339A4675
:102EA000D8E7B20700D53CE1360703D540231F43DE
:102EB0003F3B02934346189E1A6E5B6E0299226551
:102EC0006365A66508A8FDF7A5FAE062002816D19B
:102ED000484600F04DFC02256FE7330700D58DE032
:102EE0003E2333401A00531E9A410292E2E707251F
:102EF000484600F03DFC60E706239A46AAE74346B1
:102F00001A78042A00D14BE1F37EB17E1B020B43F9
:102F1000032A05D1727D317D12020A431204134344
:102F2000A360737F327F1B021343B27F12041A43E4
:102F3000F37F1B0613432361002363610023424692
:102F4000E3652260D2880021A2803022A75401329A
:102F5000A35400220023A264E364A263E36360231A
:102F60009A468022A2445046920008F013F8BF0609
:102F700000D4D2E02669676933003B4300D1CCE03E
:102F80004346A663E7635889A1684302029300237E
:102F90000393002F0BD122E1029A039BB61A9F41A3
:102FA000431C00D112E1039B9F4200D87EE0200029
:102FB000FDF762FE01000128EED820640225E36AD5
:102FC000013B0F2B94D8802682481B01C118CA6888
:102FD0007600B24200D1FFE0002A03D0013ACA6075
:102FE000002A85D10022C25082E708A8FFF702FC20
:102FF0008246002800D02DE708231F4343461B7854
:10300000042B00D195E004F0E3FE189B010A020CAA
:10301000C6B2D2B2C9B2000E9E731A74D973587474
:10302000189B9E751A76D9755876189BDE7E9A7E07
:103030003602164342461278032A05D15A7D197D7D
:1030400012020A43120416432022DA720022414679
:10305000189B9A76DA760978032901D11A755A7580
:103060000022189B1A775A779A77DA77012342461B
:103070001371002E00D119E7536E126E31000292C7
:10308000039308A80022FEF719F88246002800D012
:10309000E0E6029A039B4046FDF7CCFB013E434627
:1030A0005E61002800D101E7050021E7029A039B39
:1030B0009F4202D1964200D979E72164F3052CD0D2
:1030C0004346DB6A8A1E023B9A4200D376E74346B8
:1030D00000215889002307F0E7FD0B00020041465C
:1030E000086D496D801859410300029003910B430C
:1030F00000D163E702980399FB05720A1A437B0A21
:1031000012184B414146A264E364487801210091C2
:10311000514604F0F1FD002859D1484600F028FB43
:103120004DE6DB0700D4BFE6484600F021FB07254B
:1031300043E643461E69236030002100FDF7C6FACE
:103140001E220021B01C07F025FF4346186900210C
:103150001A22263007F01EFF434620221B691A71EF
:1031600043461E6904F034FE030A7372030CB37203
:1031700043463072000EF0721A690121212308A81B
:10318000D154FEF75DF9061E1BD1A168002900D1BC
:103190008CE600222000FDF791FFA668013E7EE745
:1031A0000A9BFB3223620C9B2100934302AAD27F2D
:1031B000134363621C9BA36243461869FDF786FABA
:1031C000BCE6484600F0D4FA3500F6E52064012557
:1031D000F5E6C046586300200022CA6002E7029B61
:1031E0009E4200D9E3E668E7F0B54E469946574659
:1031F000DE464546924600234A46E0B58DB00E00B5
:1032000013600BA90700FDF76DF9002800D08DE0D1
:103210003123F85C002800D088E0013BFB5C9A0772
:1032200000D41AE10B9A90461278042A05D0514630
:10323000BA6B51188A4200D9F4E05246002A00D1F4
:10324000B0E0BA6BFB6B30218B464146B046564628
:1032500008910990D00500D06FE0089CD905500A6C
:10326000084365890400013D2C40590A0694284210
:1032700010D11A4300D0B7E0B868002800D1F3E0BD
:1032800001284FD0431C00D1E2E0BB683864002B1A
:1032900000D1B8605B46FB5C7F2B00D9C5E0089C81
:1032A0003A6CE36A023A023B9A423BD265890023B8
:1032B0002800002107F0F8FC226D636D8018594149
:1032C00003000B432ED00023069C05930494049A1C
:1032D000059B12184B410692079380239B009E4248
:1032E00000D26EE0730A9A4623005344AB4201D9E0
:1032F0002B1B9A46069C079D089B22005878534634
:10330000414600932B0004F00BFD002800D09FE005
:10331000BA6CFB6C121BAB41984200D1BFE0534624
:103320005D0220E0312302220220FA540DB0F0BCED
:10333000BB46B246A946A046F0BD60239A46BA44B1
:103340008023C00D9B001D1AB54200D935002A000C
:103350004146504407F024FE5B468022FB5C52420B
:1033600013435A46BB544B464A461B6802955B19A9
:1033700013600023039302980399BA6BFB6B121836
:103380004B417969BA63FB633869761BA8448B4269
:103390000FD80CD038617961002E00D05AE7302365
:1033A0000998FB5C402213433022BB54BEE78242A3
:1033B000F0D91000190038617961002E00D049E77A
:1033C000EDE760239A46BA6BFB6BB96C0698BA447A
:1033D000814244D07969994253D84FD006980799D1
:1033E000B864F964D005ABE7FB6D9A46002B40D07A
:1033F0001D1D3B685A89002306F058FE53465B6842
:10340000002BCCD0089C04E00835C01A2B68002B98
:10341000C5D09842F8D26B680894C018002800D034
:103420002EE7BCE7D243924607E70899BA6CFB6CDB
:103430004878012100913900603104F071FC0028C6
:1034400006D15B46FA5C7F2313405A46BB5426E7FD
:10345000312301220120FA5468E7072066E7F96C5E
:1034600007988142B6D1B9E700213800FDF7DCFCAE
:10347000D4E73800396CFDF7D7FCCFE739699142C2
:10348000ACD9089B5146587801230093069A079BB4
:1034900004F032FC0028DBD1BA6BFB6B9EE792454F
:1034A00000D83CE7520242441100380080226030CC
:1034B000920007F075FD30227F23B95C0B40BB54AE
:1034C0002DE7C046F0B5D6464F464646C0B5040087
:1034D00098B0002809D00368002B06D01A78002A7B
:1034E00003D08188DA88914207D00925280018B0D6
:1034F000E0BCBA46B146A846F0BD587804F0D0FB0F
:1035000001210142F1D1402230261500A35D1D406A
:103510001A42EBD05BB22768002B3CDB04F058FC6E
:103520003B780600042B45D0226D636D3800FDF713
:1035300081F9051EDAD12021A36DDA7A0A43DA7205
:10354000A268206891B2090A9A76D976017803298F
:1035500003D1120C1A75120A5A7522699E75110A46
:103560001A775977110C120EDA77320ADA75320CA3
:103570001A760022360E99779A74DA745E760123F1
:1035800038003B71FDF7D8F830224021A35C0500DC
:103590008B43A354AAE77878A26CE36C00912100D6
:1035A000603104F0BDFB002839D17F23A25D1340B8
:1035B000A355B3E72000FDF73BFB051E96D1012282
:1035C0002000216C5242FDF711FB051E00D08DE753
:1035D0008C20C00000F0C8F88146002800D195E09A
:1035E00080239B004B443B6102AB984642462368D4
:1035F000A16A0293236AF8609360636A4046D371BC
:10360000FF22934342465561D56113611165FDF771
:10361000E9FC051E05D0484600F0AAF866E701253A
:1036200064E74046FDF796FE051EF4D120213A6975
:1036300013790B4313710122E37939691343212272
:103640008B543421A3683A69180A535401315054F9
:10365000180C0131505438201B0E0131535421698C
:103660003B6962691954080A8446924639206246C9
:103670001A540A0C01301A54090E013019545246DA
:103680003C21100A5A5401315854100C013158543D
:103690002820120E01315A5421693B69626919547C
:1036A000080A84469246292062461A540A0C0130C0
:1036B0001A54090E0130195452462C21100A5A543A
:1036C00001315854100C01315854120E01315A5422
:1036D0003B69320A1E735A73320C360E9A73DE73CC
:1036E0003B6940465D753B691D745D749D74DD7476
:1036F000FDF7A6FE051E8ED13800FDF71DF830221D
:103700004021A35C05008B43A35484E71135EDE60B
:1037100070B582B00400FFF7D5FE002801D002B0DA
:1037200070BD200001A9FCF7DDFE0028F7D1E36A97
:10373000013B0F2B14D880260A491B01CD18EA68DB
:103740007600B24208D0002A07D0013AEA60002A87
:1037500003D000232360E2E7E8600022CA50F8E7C4
:103760000220DCE75863002010B507F09BFB10BD7A
:1037700010B507F0F7FB10BD02007F2801D880B21A
:103780007047802300205B029A42F9D2B623FF33B0
:103790009942F5D10023074904E001339BB202317D
:1037A000802B05D008889042F7D1803398B2E7E7A4
:1037B0000020E5E78C7001108023F0B55B02984291
:1037C00017D2802386B25B01984213D2244AFF2786
:1037D0000AE08E420CD35B8804321C0A3B405D1821
:1037E000A84209DB002C0DD0118813000029F0D16C
:1037F0003000F0BD1B4AEAE7082CF9D81A4BA400A8
:103800001B599F465B00D218EEE7503EB6B230001F
:10381000EFE70836B6B23000EBE71A3EB6B230003A
:10382000E7E7303EB6B23000E3E7203EB6B2300004
:10383000DFE7103EB6B23000DBE70123711A0B4020
:10384000F61AB6B23000D4E7411A49008E5A300059
:10385000CFE7064B9C466644B6B23000C9E7C04687
:10386000986E0110DC6D0110B86D0110A0E3FFFF30
:10387000F0B59223C6469B0000B5002406000D005B
:103880009846012704F058FEA0420CD9200004F00D
:1038900055FE002802D00378022B07D0013404F033
:1038A0004BFEA042F2D880BCB846F0BD4246436809
:1038B0009958DB69B342F1D13B008B402A6813422F
:1038C000ECD02B6013F07CF90134E8E770B51E4DA5
:1038D00004002B680A00984224D0AB68984228D094
:1038E0001A4B0B2C1BD00C2C11D119491960002A32
:1038F00010D0200005F062F90121200005F026F922
:103900002B689C4217D0AB689C421AD070BD1968D6
:10391000002AEED18022200005F07AF9ECE70D496B
:103920001960E4E70023DB00EB181B79002BEDD1D5
:10393000D6E70123F7E70023DB00ED1801232B7105
:10394000E4E70123F8E7C04610120020E86F0020EA
:10395000610100207101002010B5403013F078F9AA
:1039600010BDC04610B5403013F0F2F810BDC0468F
:1039700010B5037A027E002B0BD00121D023C4683E
:103980001B06A1405B680B40591E8B4101698B42AD
:1039900004D102239A430276012010BD03231A4367
:1039A0000023027643765D21024A034804F0F2F9CF
:1039B0000020F2E78C710110A8710110002803D0DB
:1039C000024B9C46604470470148FCE7B10200008E
:1039D000CC960110F8B5DE4657464E4645463A4B62
:1039E000E0B518009A4613F033F9384B1F789B4620
:1039F000002F43D101239946354B002598460137C6
:103A000004F09AFDA84236D9280004F097FD041E60
:103A10002CD00600036C4036002B48D0300013F049
:103A200017F94B462B48237642462B0004212018D9
:103A300008F088FC237A002B0DD0237D002B07D0C3
:103A4000637DE068002B36D00022012104F0FCFFEA
:103A5000E06805F02FF82378012B19D0022B02D152
:103A6000200001F0ABFF300013F072F8013504F0D4
:103A700063FDA842C8D801235A461370504613F07C
:103A800067F83800F0BCBB46B246A946A046F8BD70
:103A9000200003F0F3FE6368186801F0EBFF431E9B
:103AA000984140420740200003F098FEDBE73000D9
:103AB00005F03EFAB2E70122002104F0C5FFE068FC
:103AC00004F0F8FFC7E7C046285F0020A20E0220DE
:103AD000A4710110B1020000F8B59B229C2394252B
:103AE000CE46474604004068AD009B009200415915
:103AF0008258C31880B5806904F03EFF9123646842
:103B00009B00E058484FC6023E40A027FF05B8463C
:103B1000A32704336159A269E558444BBF00D31869
:103B20001B0DDB005B18DB033343414EE759334089
:103B3000EE0233433F4E7F021E43B44686014644A5
:103B4000B846A227BF00E759474437600F1DBF00A2
:103B5000B94691444F4677608027B7606746376122
:103B6000A826B600A61937687668BC46B046AA26CD
:103B70004746B600A75167460436A75101270436C9
:103B80007F42A751A0272C4EFF05BC463340AA27F1
:103B90001926BF003343AE016644BC46A4446746C1
:103BA00037604F4677600327B7603361E3690B2BBB
:103BB00030D00C2B07D10123AB40A0251F4CED05C5
:103BC0002B511F4C236083238C001419DB002361CD
:103BD0004B005B18DB001B4DD318D8331D601F252D
:103BE0002561194D1D60194D1D60194D1D60102373
:103BF0005B42236111331D00A024854086208B4049
:103C0000E405C0002550106803431360C0BCB946EA
:103C1000B046F8BD0123AB40A0250E4CED052B515D
:103C20000D4C2360CFE7C046FD7F00FF0000E0AFF2
:103C3000FF87FFFF19004000FFFFBFFF1C040000CB
:103C40001424005020600000406000000FE00000DD
:103C50008FE000000C04000004240050912370B594
:103C600045689B00EA580123A02693401E49F605AB
:103C700073501E4B80219C460400920182B0624426
:103C8000490413680B42FCD1922301209B00EA589F
:103C9000154B9040F050154B80219C469201624498
:103CA000490413680B42FCD1EB690B2B18D00C2B89
:103CB00001D10F4B1860942301229B00E958A86999
:103CC0008A4003689343AA68002503600423009593
:103CD00004F0F8FDA02362689B00D55402B070BDCB
:103CE000044B1860E7E7C046440400000C00005095
:103CF0001434005004340050F0B5FF26140E1502A1
:103D00002D0E24022C433604150A12042D06090434
:103D1000324021432A43BD248025A4056D000C4375
:103D20001543002B01D0013B1D43FF23134A260CF2
:103D30001E40965D270A1F407E40965D19407140E7
:103D4000515C2E0E7140515C2E0C33404B40D15CC7
:103D50009323090229430A4D9B00AC4680258269C2
:103D6000C0582D0643001B18DB00D31880006344A5
:103D700012181D601D6014611161F0BDE073011027
:103D8000D0100000890070B54518A8423AD204004E
:103D9000002100202668626836BA330C73404B401D
:103DA000090C4B4012BA1E0B4640110C180470400F
:103DB00051404140A268000C41401E0510BA7340BA
:103DC0000E0B5E40020C0B04734042405A40E06808
:103DD0001B0C5A400B0500BA4B40160B5E401104F9
:103DE000030C714043404B40090C4B4011055140BE
:103DF0001A0B4A4018051904103458405140A54286
:103E0000C8D870BD00200021FBE7C046F0B545468C
:103E10005746DE464E46A523E0B544689B009846CB
:103E2000E558083BE35887B017000590AB4237D9F7
:103E30004E1E002934D0A2239B009A46284B04969C
:103E4000994613E0A622920093465E46A25801329C
:103E5000A251012A2BD04346E558A3239B00E358E7
:103E60009D421DD2049B013B1AD3049342466B1C16
:103E7000A3502B0052467B43A0589B00C01839002A
:103E8000FFF780FF4A46EB00E3189A5812BA9446AF
:103E9000144A9B581BBA9842D4D16145D2D1DAE773
:103EA00007B0F0BCBB46B246A946A046F0BD02939F
:103EB00001916346D7210C4C039300902B00200006
:103EC0000A4A490003F066FF002F05D00023049E34
:103ED00010339F42FCD80496059B5C68BBE7C04644
:103EE000C4120000C812000090730110B8710110D4
:103EF000F0B51D00D6464F4646469A466B1E9D417C
:103F000089463023C0B569420B40040049464068E9
:103F100082B0FFF7F1FE05F0DDFBFA2200239200EC
:103F200006F0C4F89327444B060098460135BF00BD
:103F30000BE005F0CFFBFA220023920006F0B6F862
:103F40004346DB69801B984239D86368D959986920
:103F5000CA00C3680432D3400F221A409542E8D801
:103F60005346002B4FD0FF26890041180B6A334A75
:103F70001D0E0C6A180C515D30404840105C190A47
:103F800031404140505C310019404840105C210AEA
:103F900031404840165CFE221440A64237D1A94564
:103FA00002D04A46292A3CD152461B020B431360D9
:103FB000002002B0E0BCBA46B146A846F0BD4B4670
:103FC000082B06D01E480093B72103001D4A03F0BA
:103FD000E1FE932260681C4C9200A4468024815824
:103FE00083694A005218D2009918614424060C6073
:103FF0000C609521890041581F209B180140D8333F
:1040000019601D38D5E7083189000B58D0E74B46B9
:10401000D4210E4A0A480194009603F0BBFE032007
:10402000C7E74B46DC210093094ADC23044801958D
:1040300003F0B0FE0420BCE724120020E07301105E
:10404000AC73011094720110D0100000D8720110EE
:1040500024730110F0B51C00436845469C469B69DB
:10406000DE469846932357464E46934662469B004B
:10407000E0B50600D058674A8025914643001B18DA
:10408000DB0043444B442D0691271D601D606346B1
:10409000021D9146BF00DD595F4B89B043441B0DA3
:1040A000DB004B44DA030192EA0291465B4A083096
:1040B00092464A4653461A401300019AAD011A43EC
:1040C000130029221343A022D205914680004D44BB
:1040D00040442860052003AA6A60A8605A46EB6045
:1040E00060468823FFF708FE05F0F4FAFA22002361
:1040F000920005F0DBFF4A4B80469A460CE005F043
:10410000E9FAFA220023920005F0D0FF4346C01AD4
:1041100053461B6A984253D873688025DA59A02306
:104120004049DB0599469301591809686D042942F5
:10413000E5D10121914048460A003B4942503B4AA3
:10414000944663441A682A42FCD1039D38482B0CDC
:1041500023702B0A6370049BA5701A0EE2701A0C70
:104160002271A3711A0A059B62711A0EE2711A0C70
:104170002272A3721A0A069B62721A0EE2721A0C5B
:1041800022731A0A62730022A37302AB1E7D2300FE
:10419000E6730F34197801334A40825C9C42F9D1AE
:1041A00001239E43964232D1280E3F38431E984148
:1041B000800009B0F0BCBB46B246A946A046F0BD9F
:1041C000012371684C46CA59174893402350174B36
:1041D00092019C46624413682B42FCD193220D4C01
:1041E0009200A446802488588B6942001218D2009D
:1041F00098186044240604600460952080000958E3
:104200001F209B180140D83319601D38D1E70320C7
:10421000CFE7C046D01000000000E0AFFD7F00FFF8
:104220002412002010000050440400000C00005034
:10423000E0730110F0B5C6460400984600B530237F
:104240004068FFF759FD05F045FAFA220023920075
:1042500005F02CFF932605001E4FB6000AE005F07E
:1042600039FAFA220023920005F020FF7B6A401BF6
:10427000984217D8636898699B59C268D90004317D
:10428000CA400E211142EAD09B00C018026A036A9C
:1042900012021B041B0E134342460020136080BC15
:1042A000B846F0BD60680C4C8159A44680244A0091
:1042B00083695218D2009918614424060C600C607E
:1042C0009521890041581F209B180140D83319605F
:1042D0001D38E4E724120020D0100000F0B5574646
:1042E0004E464546DE461C00A02390460122E0B51E
:1042F00045689B0007000E0085B0EA5405F0EAF916
:10430000FA220023920005F0D1FEA1239B00E85081
:104310007D680433A322EE50002341469200AB5047
:104320000432A9500432AB500432AB50002900D102
:10433000B1E0A3089C46B12340469B00994600018A
:104340008046B120A9444B46A1468000554A4044CE
:10435000281831000400AA1860460226AC464D46D3
:10436000039319609A605860DE601033491908326F
:10437000A342F6D12C006546002243469046B12266
:104380004146EB18920099500432995091239B00BA
:10439000EB58A8699A4694239B00E9589946083B34
:1043A000EB580291DA0294463F4A9B018618360D7B
:1043B0000A1DF600B61852463C49D2020A40614630
:1043C000F60332433A4E640032400A43A021394E8C
:1043D000C905164352468A46920192445146B34655
:1043E000029E0F340836B60086190E6046464E60AF
:1043F0008E605E460E6161462F4E31402F4E0E4359
:10440000A021C9058C460399634419602C498C4648
:1044100062445A6002229A60972292001E61AB1891
:10442000043AAA58029904F0A7FA454649467B681F
:104430009A68595898690095042304F043FA49464C
:104440007868204D415882690B1D9B009C504B00A1
:104450005B18DB00D3181C00D83425608024D033CF
:104460001D6824062C431C60012392241D00A40017
:104470000059A024854086208B40E405C0002550CB
:10448000106803430020136005B0F0BCBB46B24681
:10449000A946A046F0BDB1239B009C46AC446346B0
:1044A000039369E7C41200000000E0AFFD7F00FF46
:1044B000FF87FFFF29004000FDFF1FFFF9841F0059
:1044C0001800005040600000F8B5A427A3264368F8
:1044D000BF00B6000D009A59D95904008A4211D381
:1044E000A0220020920098542A002000FFF78EFCA2
:1044F000A62362689B00D35806205A1E93415B4254
:104500001840F8BD2A000421FFF780FC9223A02167
:1045100062689B00D358C9059B015B58B121890093
:1045200051185B1ADB08013B5B089351A0239B00E9
:10453000D35C002B15D005F0CDF8FA2200239200B1
:1045400005F0B4FDA12362689B00D358064AC31A44
:10455000926A01209342D4D32000FFF77FFB05200D
:10456000CFE7D159C0E7C04624120020F8B547462E
:10457000CE46A02380B51700022244689B000500A8
:104580000E00E25405F0A6F8FA220023920005F08E
:104590008DFDA1239B00E0506C680433A322E650FC
:1045A000994600239200A3500432A750A5279046B5
:1045B0000832A350BF000133E35180213000FFF7E0
:1045C000E1FBA8239B009C466444206061602800B6
:1045D000FFF782FA43466C68E059E358984204D3E7
:1045E0000020C0BCB946B046F8BD431CE3514B4661
:1045F000E358400218188021FFF7C4FBA8239B0052
:104600009C46644420606160EAE7C0461D4B70B57B
:104610005B6804000D00DB0526D16268002D04D024
:10462000A3239B00D3585B022B60A0239B00D35C89
:10463000002B11D005F04EF8FA220023920005F06D
:1046400035FDA12362689B00D3580F4AC31AD26A72
:10465000012093420BD270BD2000FFF7FFFAAD237B
:1046600062689B00D05CF6E712F0AAFAD5E7074A29
:104670000749084803F08EFB2000FFF7EFFA0520FA
:10468000E9E7C04600ED00E0241200205C73011051
:10469000C30200007C730110F0B54E464546DE466D
:1046A00057463023E0B545680400EB5C91B00E1C22
:1046B000002B2DD1A869002800D105E2EB69002B61
:1046C00000D1DAE1012104F0ADF893239B00E8501A
:1046D00065680121A86904F0A5F894239B00E850BF
:1046E0000120656803F044FF91239B00E8500120FE
:1046F000656803F03DFF922320229B00E850636829
:10470000995CD869FFF7E2F8302301226568EA5422
:1047100091239B00EA580123A0209340EE49C00555
:104720004350EE4B80219C46920162444904136839
:104730000B42FCD192239B00EA5801239340E649A7
:1047400092014350E54B80219C4649046244136822
:104750000B42FCD1012393211F0089006958A869ED
:104760008F4094218900695802688B40BA430260E7
:1047700002689A43026004F08BF86368D84998692C
:1047800004F06CF863680500984695234246F821CA
:104790009B001135D0502D03C30152681D43D14BEE
:1047A00049051D4013060B401D434346F8210700F1
:1047B000F8201B68C9019B020B400003D103014094
:1047C0000B431F2111400B43F821520189000A407D
:1047D0001343C54AEC2113430793C02389059B0269
:1047E000301C069306F080FA814606F0EFFA86B296
:1047F0000023002E0ED0300006F0C1FA011C4846FE
:1048000006F06FFA8721C90506F085FA06F0DEFA90
:10481000C3B21B0236041E4302231D430595932594
:1048200043463A000127AD005959986904AB0396F5
:10483000049604F0A1F8636859591A68986901232D
:10484000009704F03FF83900636898695B59026883
:1048500099400B001343A549036003F0FFFF636811
:10486000C0219846962342469B00D05000238022C8
:104870000F93F82381460CAD5B02520209030C92A0
:104880000D930E911022290008A806F089FB4846D6
:10489000031DC2011B0308A80100134328001022B6
:1048A000099306F07DFB97208000404403002A0016
:1048B00043CA43C397208000404411680200404629
:1048C0008368F820DB0300030600034088480140AA
:1048D0000B43D3609168874B834619409A46C023A7
:1048E0009B020B4393609723424603989B00D05052
:1048F0008149906903F0B2FF6368C02198469B2309
:1049000042469B00D050002380220F93F82381461B
:1049100052025B020C920D93090308AB102218009F
:104920000E91290006F03CFB4B465A1D0833D2017C
:104930001B0313432800102208A9099306F030FB3B
:104940009C239B004344290010221800994606F03E
:1049500027FB43469A684B465946F820DB6880009F
:104960000B40D10331400B4364493E000B405101E1
:1049700001400B43624903980B401F2111400B4338
:1049800060490B40822149050B434946CB605346A1
:104990008968194080239B020B4349468B609C2306
:1049A00041469B00C850434658681B688D699E402D
:1049B00033003E00864033433E0096404246334338
:1049C0003E00D268A96B9640424633433E001269CE
:1049D000964042465269334397401F434A4B0F4328
:1049E0009C46AF6365446B425D410635290004F087
:1049F00011F863682900186804F00CF8636829004E
:104A0000986804F007F863682900D86804F002F891
:104A100063682900186903F0FDFF6368290058697D
:104A200003F0F8FF63680121586804F021F8636817
:104A30000121186804F01CF863680121986804F0EB
:104A400017F863680121D86804F012F8636801213F
:104A5000186904F00DF863680121586904F008F83A
:104A6000282263689A5C002A0AD1012011B0F0BCA8
:104A7000BB46B246A946A046F0BD0B33EB6121E62A
:104A80002A225868995C04F003F829226368995C2B
:104A9000186803F0FDFF2B226368995C986803F0A7
:104AA000F7FF2C226368995CD86803F0F1FF2D2290
:104AB0006368995C186903F0EBFF2E226368995CC8
:104AC000586903F0E5FFD0E71048EB69A861002BB7
:104AD00000D0F7E5D1E7C046440400000C000050C8
:104AE00010750110FFFFFF8000001024FC740110FE
:104AF000FF7FF0FFFFFF00C0E07401101FFCFFFF0D
:104B0000E0FFFFE3FFFF0FFC0000D0AF00002050EC
:104B10000122110030B5037E040083B019401A420F
:104B200012D1436801919A6B0D2101ABFFF7E0F9B7
:104B3000020050425041C0B2002A03D00122237E1D
:104B40001343237603B030BD052004F0E9FF06F0DF
:104B500016F9114906F0CBF8011C2000FFF79CFD67
:104B60000028EFD00023002200212000D525FFF7E8
:104B7000BFF900236D002A000193082101AB20003A
:104B8000FFF7B6F9019A03000020AA42DAD1584291
:104B90005841C0B2D6E7C0460050C349F8B504003A
:104BA000FEF7DAFE0122237E01261343237600233B
:104BB00063766368D0251F683300BB402D06AB6168
:104BC0000022AB623800002103F03EFF38001F21B5
:104BD00003F020FF636800225F683300BB403800A9
:104BE000AB610021AB6203F02FFF38001F2103F0FF
:104BF00011FF636800229F683300BB403800AB613F
:104C00000021AB6203F020FF38001F2103F002FFF8
:104C100063680022DF683300BB403800AB610021CD
:104C2000AB6203F011FF38001F2103F0F3FE63684D
:104C300000221F693300BB403800AB610021AB622A
:104C400003F002FF38001F2103F0E4FE6368002236
:104C50005F690021BE403800AE61AE6203F0F4FE31
:104C600038001F2103F0D6FE2000FEF77BFEF8BDC2
:104C7000F0B5C646050000B5837E1A355C06DB0933
:104C8000E40F5B001C4318D00020012C02D080BC34
:104C9000B846F0BD00220F27072611003031CB089F
:104CA000FB1AEB5C31400B41234093400132184327
:104CB000162AF2D101308002E9E70F239C460E3B11
:104CC000002207279846110066463E31CB08F31AAA
:104CD000EB5C39400B4141460B40934001321C4391
:104CE0000C2AF0D123232421C35C415C0B3A1A40E7
:104CF000C91152000A4304215B000B401343601C9E
:104D000002339840C3E7C046F0B5C64600B504007C
:104D100086B0052004F004FF06F031F8C94905F01B
:104D2000E6FF011C2000FFF7B7FC00282CD0D52798
:104D3000052500267F00012004F022FC002300222C
:104D4000002120000596FFF7D3F8D5220821200086
:104D500005AB5200FFF7CCF8002802D1059BBB42FF
:104D600017D0013D002DE6D1D52305995B0099426E
:104D700001D100280DD002917621B34B0190B34AA6
:104D80001800009103F006F8002006B080BCB84679
:104D9000F0BD04F09FFCFA220023920005F086F992
:104DA00080466668AA4F00223721200005ABFFF736
:104DB0009FF840257055002811D07E226368DA6381
:104DC000595D082955D8A34B8A00D35801917E21FB
:104DD000A14A0091A148353902F0DCFFD4E76668AA
:104DE0002921330020009E4A3433FFF723FA7055FF
:104DF000002811D07F226368DA63595D08293AD808
:104E0000944B8A00D35801917F21934A0091934893
:104E1000363902F0BFFFB7E704F05CFCFA2200234A
:104E2000920005F043F94346C01A3B6B98424ED8B6
:104E30006668736B002BB6DA230000220221200083
:104E40002A33FFF707F97055002816D090226368BF
:104E5000DA63595D082900D9F1E07E4B8A00D35806
:104E6000019190217C4A00917C48473902F092FFE1
:104E70008AE77C4BAAE77B4BC5E7666800223300D4
:104E8000032120003833FFF733F87055002824D170
:104E9000260067681A36330009212000BA6BFFF735
:104EA000D9F8785500282BD0A1226368DA63595DC0
:104EB000082900D924E1674B8A00D3580191A12128
:104EC000654A00916548583902F064FF5CE7872124
:104ED000654A5D4802F05EFF56E799226368DA632F
:104EE000595D082900D9E3E05A4B8A00D358019153
:104EF0009921594A00915948503902F04BFF43E734
:104F0000A37E5806DB09C00F5B00184300D1D1E037
:104F10000023012800D1F7E06668E3630721200041
:104F2000B26B05ABFEF7E4FF40257055002812D0A8
:104F3000AB226368DA63595D082900D9E2E0454B8A
:104F40008A00D3580191AB21434A0091434862390A
:104F500002F020FF18E7666837212000B26B05AB2E
:104F6000FEF7C6FF7055002812D0BA226368DA63D4
:104F7000595D082900D9E0E0364B8A00D3580191E9
:104F8000BA21354A00913548713902F003FFFBE63A
:104F900000222A21200005AB6668FEF7A9FF7055A4
:104FA000002812D0BB226368DA63595D082900D952
:104FB000C9E0284B8A00D3580191BB21264A0091B1
:104FC0002648723902F0E6FEDEE6666837212000E8
:104FD000B26B05ABFEF78CFF7055002812D0C322D0
:104FE0006368DA63595D082900D9AEE0194B8A007D
:104FF000D3580191C321184A009118487A3902F018
:10500000C9FEC1E602220621200005AB6668FEF754
:105010006FFF7055002829D0C4226368DA63595D98
:10502000082900D9ACE00B4B8A00D3580191C42168
:10503000094A009109487B3902F0ACFEA4E6094B0D
:105040000EE7C0460050C349BC7801104C750110F2
:10505000241200201C78011098750110B0780110FE
:10506000000004D03C750110B8750110802205AB1A
:105070001021200092006668FEF73AFF70556368C1
:10508000002864D15D6A002D59D0AD00052004F0E0
:1050900047FD05F074FE061C280005F070FE011C9B
:1050A000301C05F024FE011C2000FFF7F5FA6CE629
:1050B000354B1CE70F239C460E3B002207279846E2
:1050C000110065463E31CB08EB1AF35C39400B41C9
:1050D00041460B409340013218430C2AF0D1232360
:1050E0000121E25C0133E35C1140DB11490019430B
:1050F000431C0420520002400A43023293400BE753
:10510000214BDBE6204B1DE70F339C460E3B002076
:10511000002207279846110065463031CB08EB1A6C
:10512000F35C39400B4141460B4093400132184338
:10513000162AF0D101308302EEE6134B1FE7134A23
:10514000134D5A62A2E7104B36E70F4B51E7C922C5
:10515000DA63595D082915D80E4B8A00D35801919E
:10516000C9210D4A00910D48803902F013FECB236E
:105170000B480093CB2103000A4A02F00BFE03E622
:10518000014B53E7004BEAE73C750110809698000D
:10519000005A62021C78011098750110B078011055
:1051A000BC780110DC750110F8B50400FEF7D4FBE3
:1051B0002000FEF7DDFB02221100237E19401A4277
:1051C00067D101261E4264D0636861761F68330090
:1051D000D025BB402D066B61002238006B62012197
:1051E00003F032FC3800072103F014FC636800224E
:1051F0005F683300BB4038006B6101216B6203F0D4
:1052000023FC3800072103F005FC636800229F6837
:105210003300BB4038006B610121AB6203F014FC2A
:105220003800072103F0F6FB63680022DF683300D3
:10523000BB4038006B610121AB6203F005FC380014
:10524000072103F0E7FB636800221F693300BB40BE
:1052500038006B610121AB6203F0F6FB38000721D7
:1052600003F0D8FB636800225F693300BB40012173
:105270006B613800AB6203F0E7FB3800072103F0F5
:10528000C9FB2000FFF740FD002802D0237EB34376
:1052900023762000FEF766FB207EF8BDAF230022B8
:1052A000F0B5466885B09B00F2540D0003AB0C21AD
:1052B0000400FEF71DFE4023F054002833D1002DDA
:1052C00002D1012005B0F0BD04F004FAFA22002357
:1052D000920004F0EBFED027050001263F0607E010
:1052E000310063687A689B6899400B0011420DD1C8
:1052F00004F0F0F9FA220023920004F0D7FE401BDC
:10530000C728EDD963689A6801239340D02212061A
:1053100052681342D5D112210E4A0F48FF3102F0D4
:1053200039FD0020CEE7812162684900D163D15C5C
:1053300008290DD8094B8A00D358019181214900D1
:105340000091074A0748B93902F024FD0020B9E767
:10535000054BF2E700760110947801101C780110DB
:1053600098750110B07801103C75011070B50400FB
:10537000FEF7F2FAAF2362689B00D35C0025002B96
:1053800004D12000FEF7EEFA280070BD01212000B4
:10539000FFF784FF01235840C5B2ED01F1E7C04695
:1053A000F0B5C646AF2300B546689B00F35C040029
:1053B0000F00150084B0002B67D1AB0700D06DE063
:1053C00002AB3A0018212000FEF792FD40239846D8
:1053D000F054002818D09A2263685200DA634246DB
:1053E000995C082965D8364B8A00D35801919A21D7
:1053F00049000091334A3448EB3902F0CBFC0020DD
:1054000004B080BCB846F0BD0122290020006668C7
:10541000FFF7ACF84346F054002821D140266568D8
:10542000200003A9FFF7F2F8A8556568AB5D012BD2
:10543000F6D0002B10D0082B3DD8214A990089586E
:1054400000914221214A019321483B00FF3102F0A3
:10545000A1FC40236268D35C5A425341D8B2CFE7E3
:1054600036226368FF32DA634246995C082924D801
:10547000134B8A00D35801913621FF310091114A14
:10548000EC39114802F086FCB9E70121FFF706FF6D
:105490000028B4D06668AB0700D191E730008022C5
:1054A00029004430920005F07BFD666835004435E4
:1054B00086E7084B9AE70749C2E7064BDBE7C04699
:1054C0001C78011098750110B07801102476011035
:1054D000807801103C750110F0B546464F46D6461F
:1054E000C0B505000C0017009846160086B093075B
:1054F0001AD04346CF18002B0DD1012006B0E0BCD6
:10550000BA46B146A846F0BD80239B009C460134B4
:105510006644BC42F1D0320021002800FFF740FF72
:105520000028F1D10020E9E7AF2346689B00F35C37
:10553000002B0AD0B0239B00F3588B425DD0012191
:10554000FFF7ACFE0028EDD06E6805AB22001921F4
:1055500028009946FEF7CCFC40239A46F0540028D8
:1055600016D0AE226B685200DA635246995C082965
:105570007AD8414B8A00D3580191AE21490000915D
:1055800014393E4A3E48FF3902F004FC0020B5E7DA
:105590004246390028006E68FEF7E8FF5346F05493
:1055A00000284AD140276E6849462800FFF72EF8A8
:1055B000F0556E68F15D0129F6D0002915D0082953
:1055C00054D82D4B8A00D358029101936A21434647
:1055D0002C4A0093FF3123002B4802F0DBFB012112
:1055E0002800FFF75BFE002088E7B02301229B0024
:1055F0004444F450043BF2547FE742463900FEF73E
:10560000B5FF402305AA9146F0540028CAD0AA212C
:105610006A684900D163D15C08292BD8164B8A00EF
:10562000D3580191AA21490000910C39134A14481A
:10563000FF3902F0AFFB002060E75E226B68FF32AB
:10564000DA635246995C082912D80B4B8A00D3586A
:1056500001915E21FF3100911539084A0848FF3950
:1056600002F098FB002049E7084B85E7074BABE7C2
:10567000064BEDE7054BD4E71C7801109875011037
:10568000B078011050760110687801103C75011057
:10569000F8B51C0005000F001600FEF75DF9012C9F
:1056A0000FD023003A0031002800FFF715FF040057
:1056B0002800FEF757F901235C40E0B2800280B277
:1056C000F8BD3A0031002800FFF76AFE0400EFE75A
:1056D000F0B54746CE46AF2380B546689B00F35CE5
:1056E00005008846170085B0002B00D075E0B9464C
:1056F000BB0702D044239946B14480230122494686
:1057000028009B00FEF7EAFD40243055002819D000
:10571000C5226B685200DA63195D082964D8354BDD
:105720008A00D3580191C521490000914239324A7B
:105730003248FF3902F02EFB002005B0C0BCB9464C
:10574000B046F0BD42461121280003AB6E68FEF75B
:10575000CFFB305500282BD140266C6880212800D3
:10576000FEF7B2FEA0556C68A35D012BF6D0002BAE
:105770000ED0082B3AD81F4A990089580091CB21A6
:1057800001931F4A43461F48490002F003FB6C681F
:10579000B94507D02100802238004431920005F03D
:1057A000FFFB6C684023E05C43425841C0B2C4E751
:1057B0008C226B68FF32DA63195D082918D80D4B0B
:1057C0008A00D35801918C21FF31009143390A4A54
:1057D000FF390A4802F0DEFAAEE70121FFF75EFD6D
:1057E0000028A9D06E6882E7074B9BE70649C5E70A
:1057F000054BE7E71C78011098750110B07801108F
:1058000084760110547801103C750110F0B54746BC
:10581000CE469846AF2380B5170042689B00D35C04
:1058200006000C0087B0002B46D13D00BB0714D00A
:105830004346E718002B07D138E080239B009C46A5
:1058400001346544BC4231D02A0021003000FFF70A
:105850003FFF0028F1D1002029E04346F26BE31816
:105860009342E5D2736842469946802339009B00F3
:105870003000FEF733FD40254B465855002822D016
:10588000B8227368FF32DA63595D082948D8354B6E
:105890008A00D3580191B821FF3100916F39324A03
:1058A0003248FF3902F076FA002000E0012007B00C
:1058B000C0BCB946B046F0BD0121FFF7EFFC00289F
:1058C000B3D10020F3E722001221300005AB776846
:1058D000FEF70EFB7855002826D1402775688021F9
:1058E0003000FEF7F1FDE8557568EB5D012BF6D051
:1058F000002B2FD0082B15D81A4A990089580293EB
:1059000001914346C4211A4A0093FF3123001948EC
:1059100002F040FA01213000FFF7C0FC0020C6E78A
:10592000154BB7E71449EAE7DC2273685200DA63E3
:10593000595D082913D80B4B8A00D3580191DC21FB
:10594000490000917039084A0848FF3902F022FAEC
:105950000020ACE701213000FFF7A0FCA7E7064BD1
:10596000ECE7C0461C78011098750110B078011062
:10597000B0760110407801103C750110F8B51C009C
:1059800005000F001600FDF7E7FF012C0ED02300E5
:105990003A0031002800FFF739FF04002800FDF726
:1059A000E1FF01235C40E0B2C001F8BD3A003100E4
:1059B0002800FFF78DFE0400F0E7C046426810B5EE
:1059C00093681F211C00123421401160591CD160C2
:1059D000991C0333536101231161AE2203760B4BF3
:1059E000920083500A4B043283500A4B0432835096
:1059F000094B04328350094B04328350084B043264
:105A00008350084B0432835010BDC046A95100108A
:105A10009D4B0010915600107D5900106D530010E1
:105A2000714C0010114B001070B500680C0003F0B1
:105A3000DBFF0600E00004F0C9FD040030000D00AB
:105A400004F0C4FD02000B002000290004F03DFD1D
:105A500004F008FE064905F05EF9FF21890505F00E
:105A60005AF98121C90505F03FF905F0AFF970BD7C
:105A700000007A44F8B5724D0400280011F0E8F8EF
:105A80003823E35C002B7AD12600236B3036002BC1
:105A900000D19BE0300011F0DBF82368002B00D12F
:105AA000CAE02369002B00D194E02068654903F027
:105AB0005BFF6369022B00D19BE0022B64D8002BB3
:105AC0000BD00221236860485A68181801601868D2
:105AD0000A408531484048310AE0022123685A488B
